{
  "_format": "hh-sol-artifact-1",
  "contractName": "Escrow",
  "sourceName": "src/contracts/Escrow.sol",
  "abi": [
    {
      "inputs": [
        {
          "internalType": "contract GiveCoin",
          "name": "_givecoin",
          "type": "address"
        }
      ],
      "stateMutability": "nonpayable",
      "type": "constructor"
    },
    {
      "anonymous": false,
      "inputs": [
        {
          "indexed": false,
          "internalType": "contract Campaign",
          "name": "campaign",
          "type": "address"
        },
        {
          "indexed": false,
          "internalType": "uint8",
          "name": "milestone",
          "type": "uint8"
        }
      ],
      "name": "AwaitingApproval",
      "type": "event"
    },
    {
      "anonymous": false,
      "inputs": [
        {
          "indexed": true,
          "internalType": "address",
          "name": "creator",
          "type": "address"
        },
        {
          "indexed": false,
          "internalType": "string",
          "name": "name",
          "type": "string"
        },
        {
          "indexed": false,
          "internalType": "uint256",
          "name": "amountNeeded",
          "type": "uint256"
        }
      ],
      "name": "CampaignCreated",
      "type": "event"
    },
    {
      "anonymous": false,
      "inputs": [
        {
          "indexed": false,
          "internalType": "address",
          "name": "donor",
          "type": "address"
        },
        {
          "indexed": false,
          "internalType": "uint256",
          "name": "amount",
          "type": "uint256"
        }
      ],
      "name": "DonationReceived",
      "type": "event"
    },
    {
      "anonymous": false,
      "inputs": [
        {
          "indexed": false,
          "internalType": "address",
          "name": "donor",
          "type": "address"
        },
        {
          "indexed": false,
          "internalType": "uint256",
          "name": "amount",
          "type": "uint256"
        }
      ],
      "name": "OverflowReturned",
      "type": "event"
    },
    {
      "inputs": [
        {
          "internalType": "uint256",
          "name": "",
          "type": "uint256"
        }
      ],
      "name": "campaigns",
      "outputs": [
        {
          "internalType": "contract Campaign",
          "name": "",
          "type": "address"
        }
      ],
      "stateMutability": "view",
      "type": "function"
    },
    {
      "inputs": [
        {
          "internalType": "string",
          "name": "name",
          "type": "string"
        },
        {
          "internalType": "string",
          "name": "description",
          "type": "string"
        },
        {
          "internalType": "uint256",
          "name": "amountNeeded",
          "type": "uint256"
        }
      ],
      "name": "createCampaign",
      "outputs": [],
      "stateMutability": "nonpayable",
      "type": "function"
    },
    {
      "inputs": [
        {
          "internalType": "uint256",
          "name": "amount",
          "type": "uint256"
        },
        {
          "internalType": "contract Campaign",
          "name": "campaign",
          "type": "address"
        }
      ],
      "name": "donateCoin",
      "outputs": [],
      "stateMutability": "nonpayable",
      "type": "function"
    },
    {
      "inputs": [
        {
          "internalType": "address",
          "name": "",
          "type": "address"
        },
        {
          "internalType": "address",
          "name": "",
          "type": "address"
        }
      ],
      "name": "donationInfo",
      "outputs": [
        {
          "internalType": "uint256",
          "name": "",
          "type": "uint256"
        }
      ],
      "stateMutability": "view",
      "type": "function"
    },
    {
      "inputs": [
        {
          "internalType": "uint256",
          "name": "",
          "type": "uint256"
        }
      ],
      "name": "donators",
      "outputs": [
        {
          "internalType": "address",
          "name": "",
          "type": "address"
        }
      ],
      "stateMutability": "view",
      "type": "function"
    },
    {
      "inputs": [
        {
          "internalType": "address",
          "name": "account",
          "type": "address"
        }
      ],
      "name": "getAllDonationsForAccount",
      "outputs": [
        {
          "internalType": "uint256[]",
          "name": "",
          "type": "uint256[]"
        },
        {
          "internalType": "address[]",
          "name": "",
          "type": "address[]"
        }
      ],
      "stateMutability": "view",
      "type": "function"
    },
    {
      "inputs": [],
      "name": "getCampaigns",
      "outputs": [
        {
          "internalType": "contract Campaign[]",
          "name": "",
          "type": "address[]"
        }
      ],
      "stateMutability": "view",
      "type": "function"
    },
    {
      "inputs": [
        {
          "internalType": "address",
          "name": "account",
          "type": "address"
        },
        {
          "internalType": "address",
          "name": "campaign",
          "type": "address"
        }
      ],
      "name": "getDonationInfo",
      "outputs": [
        {
          "internalType": "uint256",
          "name": "",
          "type": "uint256"
        }
      ],
      "stateMutability": "view",
      "type": "function"
    },
    {
      "inputs": [],
      "name": "givecoin",
      "outputs": [
        {
          "internalType": "contract GiveCoin",
          "name": "",
          "type": "address"
        }
      ],
      "stateMutability": "view",
      "type": "function"
    },
    {
      "inputs": [
        {
          "internalType": "address",
          "name": "",
          "type": "address"
        }
      ],
      "name": "hasDonated",
      "outputs": [
        {
          "internalType": "bool",
          "name": "",
          "type": "bool"
        }
      ],
      "stateMutability": "view",
      "type": "function"
    },
    {
      "inputs": [
        {
          "internalType": "address",
          "name": "",
          "type": "address"
        }
      ],
      "name": "isDonating",
      "outputs": [
        {
          "internalType": "bool",
          "name": "",
          "type": "bool"
        }
      ],
      "stateMutability": "view",
      "type": "function"
    },
    {
      "inputs": [],
      "name": "issueCoin",
      "outputs": [],
      "stateMutability": "nonpayable",
      "type": "function"
    },
    {
      "inputs": [],
      "name": "owner",
      "outputs": [
        {
          "internalType": "address",
          "name": "",
          "type": "address"
        }
      ],
      "stateMutability": "view",
      "type": "function"
    }
  ],
  "bytecode": "0x60806040523480156200001157600080fd5b50604051620054f1380380620054f18339818101604052810190620000379190620000d7565b80600160006101000a81548173ffffffffffffffffffffffffffffffffffffffff021916908373ffffffffffffffffffffffffffffffffffffffff16021790555033600260006101000a81548173ffffffffffffffffffffffffffffffffffffffff021916908373ffffffffffffffffffffffffffffffffffffffff1602179055505062000165565b600081519050620000d1816200014b565b92915050565b600060208284031215620000ea57600080fd5b6000620000fa84828501620000c0565b91505092915050565b600062000110826200012b565b9050919050565b6000620001248262000103565b9050919050565b600073ffffffffffffffffffffffffffffffffffffffff82169050919050565b620001568162000117565b81146200016257600080fd5b50565b61537c80620001756000396000f3fe60806040523480156200001157600080fd5b5060043610620000e25760003560e01c8063a6b036331162000099578063c4c87c2f116200006f578063c4c87c2f1462000268578063c637b5341462000288578063d400987314620002be578063ffa56a5714620002f457620000e2565b8063a6b0363314620001da578063ac62f56614620001fc578063c368bdae146200023257620000e2565b8063141961bc14620000e757806317294a11146200011d5780632eccc6a114620001535780634151b329146200018a5780638da5cb5b14620001ac5780639f7fd1c014620001ce575b600080fd5b620001056004803603810190620000ff91906200248f565b62000314565b604051620001149190620029e5565b60405180910390f35b6200013b600480360381019062000135919062002342565b62000354565b6040516200014a9190620029c8565b60405180910390f35b6200017160048036038101906200016b919062002342565b62000374565b604051620001819291906200298d565b60405180910390f35b62000194620006d4565b604051620001a3919062002a2f565b60405180910390f35b620001b6620006fa565b604051620001c5919062002867565b60405180910390f35b620001d862000720565b005b620001e462001a5f565b604051620001f3919062002969565b60405180910390f35b6200021a60048036038101906200021491906200248f565b62001aef565b60405162000229919062002867565b60405180910390f35b6200025060048036038101906200024a91906200239a565b62001b2f565b6040516200025f919062002b08565b60405180910390f35b620002866004803603810190620002809190620024e7565b62001bb6565b005b620002a66004803603810190620002a0919062002342565b620020b8565b604051620002b59190620029c8565b60405180910390f35b620002dc6004803603810190620002d691906200239a565b620020d8565b604051620002eb919062002b08565b60405180910390f35b6200031260048036038101906200030c919062002407565b620020fd565b005b600081815481106200032557600080fd5b906000526020600020016000915054906101000a900473ffffffffffffffffffffffffffffffffffffffff1681565b60066020528060005260406000206000915054906101000a900460ff1681565b60608060008080549050905060008167ffffffffffffffff811115620003c3577f4e487b7100000000000000000000000000000000000000000000000000000000600052604160045260246000fd5b604051908082528060200260200182016040528015620003f25781602001602082028036833780820191505090505b50905060008267ffffffffffffffff81111562000438577f4e487b7100000000000000000000000000000000000000000000000000000000600052604160045260246000fd5b604051908082528060200260200182016040528015620004675781602001602082028036833780820191505090505b50905060005b83811015620006c5576000808281548110620004b2577f4e487b7100000000000000000000000000000000000000000000000000000000600052603260045260246000fd5b9060005260206000200160009054906101000a900473ffffffffffffffffffffffffffffffffffffffff1690506000819050600560008a73ffffffffffffffffffffffffffffffffffffffff1673ffffffffffffffffffffffffffffffffffffffff16815260200190815260200160002060008273ffffffffffffffffffffffffffffffffffffffff1673ffffffffffffffffffffffffffffffffffffffff16815260200190815260200160002060009054906101000a900460ff1615620006ad57600460008a73ffffffffffffffffffffffffffffffffffffffff1673ffffffffffffffffffffffffffffffffffffffff16815260200190815260200160002060008273ffffffffffffffffffffffffffffffffffffffff1673ffffffffffffffffffffffffffffffffffffffff168152602001908152602001600020548584815181106200062b577f4e487b7100000000000000000000000000000000000000000000000000000000600052603260045260246000fd5b6020026020010181815250508084848151811062000672577f4e487b7100000000000000000000000000000000000000000000000000000000600052603260045260246000fd5b602002602001019073ffffffffffffffffffffffffffffffffffffffff16908173ffffffffffffffffffffffffffffffffffffffff16815250505b50508080620006bc9062002e30565b9150506200046d565b50818194509450505050915091565b600160009054906101000a900473ffffffffffffffffffffffffffffffffffffffff1681565b600260009054906101000a900473ffffffffffffffffffffffffffffffffffffffff1681565b60005b60038054905081101562001a5c576000600382815481106200076e577f4e487b7100000000000000000000000000000000000000000000000000000000600052603260045260246000fd5b9060005260206000200160009054906101000a900473ffffffffffffffffffffffffffffffffffffffff1690506000600760008373ffffffffffffffffffffffffffffffffffffffff1673ffffffffffffffffffffffffffffffffffffffff16815260200190815260200160002060006101000a81548160ff02191690831515021790555060005b60008054905081101562001a4457600080828154811062000840577f4e487b7100000000000000000000000000000000000000000000000000000000600052603260045260246000fd5b9060005260206000200160009054906101000a900473ffffffffffffffffffffffffffffffffffffffff16905060008190506000600460008673ffffffffffffffffffffffffffffffffffffffff1673ffffffffffffffffffffffffffffffffffffffff16815260200190815260200160002060008373ffffffffffffffffffffffffffffffffffffffff1673ffffffffffffffffffffffffffffffffffffffff168152602001908152602001600020549050600081111562001a2b5760008373ffffffffffffffffffffffffffffffffffffffff16638da5cb5b6040518163ffffffff1660e01b815260040160206040518083038186803b1580156200094657600080fd5b505afa1580156200095b573d6000803e3d6000fd5b505050506040513d601f19601f820116820180604052508101906200098191906200236e565b90508373ffffffffffffffffffffffffffffffffffffffff16631bd29b6c6040518163ffffffff1660e01b815260040160206040518083038186803b158015620009ca57600080fd5b505afa158015620009df573d6000803e3d6000fd5b505050506040513d601f19601f8201168201806040525081019062000a059190620024bb565b8473ffffffffffffffffffffffffffffffffffffffff1663344612c76040518163ffffffff1660e01b815260040160206040518083038186803b15801562000a4c57600080fd5b505afa15801562000a61573d6000803e3d6000fd5b505050506040513d601f19601f8201168201806040525081019062000a879190620024bb565b141562000bcc576000600460008873ffffffffffffffffffffffffffffffffffffffff1673ffffffffffffffffffffffffffffffffffffffff16815260200190815260200160002060008573ffffffffffffffffffffffffffffffffffffffff1673ffffffffffffffffffffffffffffffffffffffff16815260200190815260200160002081905550600160009054906101000a900473ffffffffffffffffffffffffffffffffffffffff1673ffffffffffffffffffffffffffffffffffffffff1663a9059cbb87846040518363ffffffff1660e01b815260040162000b6f9291906200293c565b602060405180830381600087803b15801562000b8a57600080fd5b505af115801562000b9f573d6000803e3d6000fd5b505050506040513d601f19601f8201168201806040525081019062000bc59190620023db565b5062001a29565b8373ffffffffffffffffffffffffffffffffffffffff1663344612c76040518163ffffffff1660e01b815260040160206040518083038186803b15801562000c1357600080fd5b505afa15801562000c28573d6000803e3d6000fd5b505050506040513d601f19601f8201168201806040525081019062000c4e9190620024bb565b828573ffffffffffffffffffffffffffffffffffffffff16631bd29b6c6040518163ffffffff1660e01b815260040160206040518083038186803b15801562000c9657600080fd5b505afa15801562000cab573d6000803e3d6000fd5b505050506040513d601f19601f8201168201806040525081019062000cd19190620024bb565b62000cdd919062002c3a565b1115620011085760008473ffffffffffffffffffffffffffffffffffffffff1663344612c76040518163ffffffff1660e01b815260040160206040518083038186803b15801562000d2d57600080fd5b505afa15801562000d42573d6000803e3d6000fd5b505050506040513d601f19601f8201168201806040525081019062000d689190620024bb565b838673ffffffffffffffffffffffffffffffffffffffff16631bd29b6c6040518163ffffffff1660e01b815260040160206040518083038186803b15801562000db057600080fd5b505afa15801562000dc5573d6000803e3d6000fd5b505050506040513d601f19601f8201168201806040525081019062000deb9190620024bb565b62000df7919062002c3a565b62000e03919062002c97565b90506000600460008973ffffffffffffffffffffffffffffffffffffffff1673ffffffffffffffffffffffffffffffffffffffff16815260200190815260200160002060008673ffffffffffffffffffffffffffffffffffffffff1673ffffffffffffffffffffffffffffffffffffffff168152602001908152602001600020819055508473ffffffffffffffffffffffffffffffffffffffff16633ceb4bd088838662000eb2919062002c97565b6040518363ffffffff1660e01b815260040162000ed19291906200293c565b600060405180830381600087803b15801562000eec57600080fd5b505af115801562000f01573d6000803e3d6000fd5b50505050600160009054906101000a900473ffffffffffffffffffffffffffffffffffffffff1673ffffffffffffffffffffffffffffffffffffffff1663a9059cbb83838662000f52919062002c97565b6040518363ffffffff1660e01b815260040162000f719291906200293c565b602060405180830381600087803b15801562000f8c57600080fd5b505af115801562000fa1573d6000803e3d6000fd5b505050506040513d601f19601f8201168201806040525081019062000fc79190620023db565b50600160009054906101000a900473ffffffffffffffffffffffffffffffffffffffff1673ffffffffffffffffffffffffffffffffffffffff1663a9059cbb88836040518363ffffffff1660e01b8152600401620010279291906200293c565b602060405180830381600087803b1580156200104257600080fd5b505af115801562001057573d6000803e3d6000fd5b505050506040513d601f19601f820116820180604052508101906200107d9190620023db565b507f264f630d9efa0d07053a31163641d9fcc0adafc9d9e76f1c37c2ce3a558d2c52878285620010ae919062002c97565b604051620010be9291906200293c565b60405180910390a17fe7dd4f80f6ff68561913383e28071b6be913a089a10d8aaef764198aab0d1e9d8782604051620010f99291906200293c565b60405180910390a15062001a28565b60008473ffffffffffffffffffffffffffffffffffffffff1663d3ecc3656040518163ffffffff1660e01b815260040160206040518083038186803b1580156200115157600080fd5b505afa15801562001166573d6000803e3d6000fd5b505050506040513d601f19601f820116820180604052508101906200118c919062002528565b60ff16141562001380576000600460008873ffffffffffffffffffffffffffffffffffffffff1673ffffffffffffffffffffffffffffffffffffffff16815260200190815260200160002060008573ffffffffffffffffffffffffffffffffffffffff1673ffffffffffffffffffffffffffffffffffffffff168152602001908152602001600020819055508373ffffffffffffffffffffffffffffffffffffffff16633ceb4bd087846040518363ffffffff1660e01b8152600401620012559291906200293c565b600060405180830381600087803b1580156200127057600080fd5b505af115801562001285573d6000803e3d6000fd5b50505050600160009054906101000a900473ffffffffffffffffffffffffffffffffffffffff1673ffffffffffffffffffffffffffffffffffffffff1663a9059cbb82846040518363ffffffff1660e01b8152600401620012e89291906200293c565b602060405180830381600087803b1580156200130357600080fd5b505af115801562001318573d6000803e3d6000fd5b505050506040513d601f19601f820116820180604052508101906200133e9190620023db565b507f264f630d9efa0d07053a31163641d9fcc0adafc9d9e76f1c37c2ce3a558d2c528683604051620013729291906200293c565b60405180910390a162001a27565b8373ffffffffffffffffffffffffffffffffffffffff16635b27ae2e6040518163ffffffff1660e01b815260040160206040518083038186803b158015620013c757600080fd5b505afa158015620013dc573d6000803e3d6000fd5b505050506040513d601f19601f82011682018060405250810190620014029190620023db565b1562001445576040517f08c379a00000000000000000000000000000000000000000000000000000000081526004016200143c9062002aa2565b60405180910390fd5b60008473ffffffffffffffffffffffffffffffffffffffff16631bd29b6c6040518163ffffffff1660e01b815260040160206040518083038186803b1580156200148e57600080fd5b505afa158015620014a3573d6000803e3d6000fd5b505050506040513d601f19601f82011682018060405250810190620014c99190620024bb565b8573ffffffffffffffffffffffffffffffffffffffff16637fb05c9e6040518163ffffffff1660e01b815260040160206040518083038186803b1580156200151057600080fd5b505afa15801562001525573d6000803e3d6000fd5b505050506040513d601f19601f820116820180604052508101906200154b9190620024bb565b62001557919062002c97565b90508083111562001840576000818462001572919062002c97565b905080600460008a73ffffffffffffffffffffffffffffffffffffffff1673ffffffffffffffffffffffffffffffffffffffff16815260200190815260200160002060008773ffffffffffffffffffffffffffffffffffffffff1673ffffffffffffffffffffffffffffffffffffffff168152602001908152602001600020819055508573ffffffffffffffffffffffffffffffffffffffff16633ceb4bd089838762001620919062002c97565b6040518363ffffffff1660e01b81526004016200163f9291906200293c565b600060405180830381600087803b1580156200165a57600080fd5b505af11580156200166f573d6000803e3d6000fd5b50505050600160009054906101000a900473ffffffffffffffffffffffffffffffffffffffff1673ffffffffffffffffffffffffffffffffffffffff1663a9059cbb848387620016c0919062002c97565b6040518363ffffffff1660e01b8152600401620016df9291906200293c565b602060405180830381600087803b158015620016fa57600080fd5b505af11580156200170f573d6000803e3d6000fd5b505050506040513d601f19601f82011682018060405250810190620017359190620023db565b507f264f630d9efa0d07053a31163641d9fcc0adafc9d9e76f1c37c2ce3a558d2c5288828662001766919062002c97565b604051620017769291906200293c565b60405180910390a17e49a5cfcc93c423ab3a6c3883b935d2f510f6753b596798105be632005150be868773ffffffffffffffffffffffffffffffffffffffff1663d3ecc3656040518163ffffffff1660e01b815260040160206040518083038186803b158015620017e657600080fd5b505afa158015620017fb573d6000803e3d6000fd5b505050506040513d601f19601f8201168201806040525081019062001821919062002528565b6040516200183192919062002a02565b60405180910390a15062001a25565b6000600460008973ffffffffffffffffffffffffffffffffffffffff1673ffffffffffffffffffffffffffffffffffffffff16815260200190815260200160002060008673ffffffffffffffffffffffffffffffffffffffff1673ffffffffffffffffffffffffffffffffffffffff168152602001908152602001600020819055508473ffffffffffffffffffffffffffffffffffffffff16633ceb4bd088856040518363ffffffff1660e01b8152600401620018ff9291906200293c565b600060405180830381600087803b1580156200191a57600080fd5b505af11580156200192f573d6000803e3d6000fd5b50505050600160009054906101000a900473ffffffffffffffffffffffffffffffffffffffff1673ffffffffffffffffffffffffffffffffffffffff1663a9059cbb83856040518363ffffffff1660e01b8152600401620019929291906200293c565b602060405180830381600087803b158015620019ad57600080fd5b505af1158015620019c2573d6000803e3d6000fd5b505050506040513d601f19601f82011682018060405250810190620019e89190620023db565b507f264f630d9efa0d07053a31163641d9fcc0adafc9d9e76f1c37c2ce3a558d2c52878460405162001a1c9291906200293c565b60405180910390a15b505b5b5b505b505050808062001a3b9062002e30565b915050620007f6565b5050808062001a539062002e30565b91505062000723565b50565b6060600080548060200260200160405190810160405280929190818152602001828054801562001ae557602002820191906000526020600020905b8160009054906101000a900473ffffffffffffffffffffffffffffffffffffffff1673ffffffffffffffffffffffffffffffffffffffff168152602001906001019080831162001a9a575b5050505050905090565b6003818154811062001b0057600080fd5b906000526020600020016000915054906101000a900473ffffffffffffffffffffffffffffffffffffffff1681565b6000600460008473ffffffffffffffffffffffffffffffffffffffff1673ffffffffffffffffffffffffffffffffffffffff16815260200190815260200160002060008373ffffffffffffffffffffffffffffffffffffffff1673ffffffffffffffffffffffffffffffffffffffff16815260200190815260200160002054905092915050565b6000821162001bfc576040517f08c379a000000000000000000000000000000000000000000000000000000000815260040162001bf39062002ae6565b60405180910390fd5b600073ffffffffffffffffffffffffffffffffffffffff168173ffffffffffffffffffffffffffffffffffffffff16141562001c6f576040517f08c379a000000000000000000000000000000000000000000000000000000000815260040162001c669062002a80565b60405180910390fd5b3373ffffffffffffffffffffffffffffffffffffffff168173ffffffffffffffffffffffffffffffffffffffff16638da5cb5b6040518163ffffffff1660e01b815260040160206040518083038186803b15801562001ccd57600080fd5b505afa15801562001ce2573d6000803e3d6000fd5b505050506040513d601f19601f8201168201806040525081019062001d0891906200236e565b73ffffffffffffffffffffffffffffffffffffffff16141562001d62576040517f08c379a000000000000000000000000000000000000000000000000000000000815260040162001d599062002ac4565b60405180910390fd5b81600460003373ffffffffffffffffffffffffffffffffffffffff1673ffffffffffffffffffffffffffffffffffffffff16815260200190815260200160002060008373ffffffffffffffffffffffffffffffffffffffff1673ffffffffffffffffffffffffffffffffffffffff168152602001908152602001600020600082825462001df0919062002c3a565b925050819055506001600560003373ffffffffffffffffffffffffffffffffffffffff1673ffffffffffffffffffffffffffffffffffffffff16815260200190815260200160002060008373ffffffffffffffffffffffffffffffffffffffff1673ffffffffffffffffffffffffffffffffffffffff16815260200190815260200160002060006101000a81548160ff021916908315150217905550600160009054906101000a900473ffffffffffffffffffffffffffffffffffffffff1673ffffffffffffffffffffffffffffffffffffffff166323b872dd3330856040518463ffffffff1660e01b815260040162001eed9392919062002884565b602060405180830381600087803b15801562001f0857600080fd5b505af115801562001f1d573d6000803e3d6000fd5b505050506040513d601f19601f8201168201806040525081019062001f439190620023db565b50600660003373ffffffffffffffffffffffffffffffffffffffff1673ffffffffffffffffffffffffffffffffffffffff16815260200190815260200160002060009054906101000a900460ff1662002052576003339080600181540180825580915050600190039060005260206000200160009091909190916101000a81548173ffffffffffffffffffffffffffffffffffffffff021916908373ffffffffffffffffffffffffffffffffffffffff1602179055506001600660003373ffffffffffffffffffffffffffffffffffffffff1673ffffffffffffffffffffffffffffffffffffffff16815260200190815260200160002060006101000a81548160ff0219169083151502179055505b6001600760003373ffffffffffffffffffffffffffffffffffffffff1673ffffffffffffffffffffffffffffffffffffffff16815260200190815260200160002060006101000a81548160ff021916908315150217905550620020b462000720565b5050565b60076020528060005260406000206000915054906101000a900460ff1681565b6004602052816000526040600020602052806000526040600020600091509150505481565b600033848484600160009054906101000a900473ffffffffffffffffffffffffffffffffffffffff1630604051620021359062002221565b6200214696959493929190620028c1565b604051809103906000f08015801562002163573d6000803e3d6000fd5b5090506000819080600181540180825580915050600190039060005260206000200160009091909190916101000a81548173ffffffffffffffffffffffffffffffffffffffff021916908373ffffffffffffffffffffffffffffffffffffffff1602179055503373ffffffffffffffffffffffffffffffffffffffff167ff645d5231257014315ed789c411b77c7e67b0405fd43321cea8589246e5f11c385846040516200221392919062002a4c565b60405180910390a250505050565b61229b80620030ac83390190565b600062002246620022408462002b4e565b62002b25565b9050828152602081018484840111156200225f57600080fd5b6200226c84828562002db5565b509392505050565b600081359050620022858162003029565b92915050565b6000815190506200229c8162003029565b92915050565b600081519050620022b38162003043565b92915050565b600081359050620022ca816200305d565b92915050565b600082601f830112620022e257600080fd5b8135620022f48482602086016200222f565b91505092915050565b6000813590506200230e8162003077565b92915050565b600081519050620023258162003077565b92915050565b6000815190506200233c8162003091565b92915050565b6000602082840312156200235557600080fd5b6000620023658482850162002274565b91505092915050565b6000602082840312156200238157600080fd5b600062002391848285016200228b565b91505092915050565b60008060408385031215620023ae57600080fd5b6000620023be8582860162002274565b9250506020620023d18582860162002274565b9150509250929050565b600060208284031215620023ee57600080fd5b6000620023fe84828501620022a2565b91505092915050565b6000806000606084860312156200241d57600080fd5b600084013567ffffffffffffffff8111156200243857600080fd5b6200244686828701620022d0565b935050602084013567ffffffffffffffff8111156200246457600080fd5b6200247286828701620022d0565b92505060406200248586828701620022fd565b9150509250925092565b600060208284031215620024a257600080fd5b6000620024b284828501620022fd565b91505092915050565b600060208284031215620024ce57600080fd5b6000620024de8482850162002314565b91505092915050565b60008060408385031215620024fb57600080fd5b60006200250b85828601620022fd565b92505060206200251e85828601620022b9565b9150509250929050565b6000602082840312156200253b57600080fd5b60006200254b848285016200232b565b91505092915050565b6000620025628383620025a2565b60208301905092915050565b60006200257c838362002713565b60208301905092915050565b600062002596838362002834565b60208301905092915050565b620025ad8162002cd2565b82525050565b620025be8162002cd2565b82525050565b6000620025d18262002bb4565b620025dd818562002c07565b9350620025ea8362002b84565b8060005b838110156200262157815162002605888262002554565b9750620026128362002be0565b925050600181019050620025ee565b5085935050505092915050565b60006200263b8262002bbf565b62002647818562002c07565b9350620026548362002b94565b8060005b838110156200268b5781516200266f88826200256e565b97506200267c8362002bed565b92505060018101905062002658565b5085935050505092915050565b6000620026a58262002bca565b620026b1818562002c18565b9350620026be8362002ba4565b8060005b83811015620026f5578151620026d9888262002588565b9750620026e68362002bfa565b925050600181019050620026c2565b5085935050505092915050565b6200270d8162002ce6565b82525050565b6200271e8162002d3d565b82525050565b6200272f8162002d3d565b82525050565b620027408162002d65565b82525050565b620027518162002d8d565b82525050565b6000620027648262002bd5565b62002770818562002c29565b93506200278281856020860162002dc4565b6200278d8162002edc565b840191505092915050565b6000620027a760208362002c29565b9150620027b48262002eed565b602082019050919050565b6000620027ce60738362002c29565b9150620027db8262002f16565b608082019050919050565b6000620027f560238362002c29565b9150620028028262002fb1565b604082019050919050565b60006200281c60128362002c29565b9150620028298262003000565b602082019050919050565b6200283f8162002d26565b82525050565b620028508162002d26565b82525050565b620028618162002d30565b82525050565b60006020820190506200287e6000830184620025b3565b92915050565b60006060820190506200289b6000830186620025b3565b620028aa6020830185620025b3565b620028b9604083018462002845565b949350505050565b600060c082019050620028d86000830189620025b3565b8181036020830152620028ec818862002757565b9050818103604083015262002902818762002757565b905062002913606083018662002845565b62002922608083018562002746565b6200293160a083018462002735565b979650505050505050565b6000604082019050620029536000830185620025b3565b62002962602083018462002845565b9392505050565b600060208201905081810360008301526200298581846200262e565b905092915050565b60006040820190508181036000830152620029a9818562002698565b90508181036020830152620029bf8184620025c4565b90509392505050565b6000602082019050620029df600083018462002702565b92915050565b6000602082019050620029fc600083018462002724565b92915050565b600060408201905062002a19600083018562002724565b62002a28602083018462002856565b9392505050565b600060208201905062002a46600083018462002746565b92915050565b6000604082019050818103600083015262002a68818562002757565b905062002a79602083018462002845565b9392505050565b6000602082019050818103600083015262002a9b8162002798565b9050919050565b6000602082019050818103600083015262002abd81620027bf565b9050919050565b6000602082019050818103600083015262002adf81620027e6565b9050919050565b6000602082019050818103600083015262002b01816200280d565b9050919050565b600060208201905062002b1f600083018462002845565b92915050565b600062002b3162002b44565b905062002b3f828262002dfa565b919050565b6000604051905090565b600067ffffffffffffffff82111562002b6c5762002b6b62002ead565b5b62002b778262002edc565b9050602081019050919050565b6000819050602082019050919050565b6000819050602082019050919050565b6000819050602082019050919050565b600081519050919050565b600081519050919050565b600081519050919050565b600081519050919050565b6000602082019050919050565b6000602082019050919050565b6000602082019050919050565b600082825260208201905092915050565b600082825260208201905092915050565b600082825260208201905092915050565b600062002c478262002d26565b915062002c548362002d26565b9250827fffffffffffffffffffffffffffffffffffffffffffffffffffffffffffffffff0382111562002c8c5762002c8b62002e7e565b5b828201905092915050565b600062002ca48262002d26565b915062002cb18362002d26565b92508282101562002cc75762002cc662002e7e565b5b828203905092915050565b600062002cdf8262002d06565b9050919050565b60008115159050919050565b600062002cff8262002cd2565b9050919050565b600073ffffffffffffffffffffffffffffffffffffffff82169050919050565b6000819050919050565b600060ff82169050919050565b600062002d4a8262002d51565b9050919050565b600062002d5e8262002d06565b9050919050565b600062002d728262002d79565b9050919050565b600062002d868262002d06565b9050919050565b600062002d9a8262002da1565b9050919050565b600062002dae8262002d06565b9050919050565b82818337600083830152505050565b60005b8381101562002de457808201518184015260208101905062002dc7565b8381111562002df4576000848401525b50505050565b62002e058262002edc565b810181811067ffffffffffffffff8211171562002e275762002e2662002ead565b5b80604052505050565b600062002e3d8262002d26565b91507fffffffffffffffffffffffffffffffffffffffffffffffffffffffffffffffff82141562002e735762002e7262002e7e565b5b600182019050919050565b7f4e487b7100000000000000000000000000000000000000000000000000000000600052601160045260246000fd5b7f4e487b7100000000000000000000000000000000000000000000000000000000600052604160045260246000fd5b6000601f19601f8301169050919050565b7f43616d706169676e2063616e206e6f742062652061206e756c6c2076616c7565600082015250565b7f43757272656e74204d696c6573746f6e6520686173206265656e2066756c666960008201527f6c6c656420627574206e6f7420617070726f7665642e20506c6561736520646f60208201527f6e617465206f6e6365206f7267616e697a6174696f6e2068617320636f6d706c60408201527f6574656420746865206d696c6573746f6e652e00000000000000000000000000606082015250565b7f43616e206e6f7420646f6e61746520746f20796f7572206f776e2063616d706160008201527f69676e0000000000000000000000000000000000000000000000000000000000602082015250565b7f416d6f756e742063616e6e6f7420626520300000000000000000000000000000600082015250565b620030348162002cd2565b81146200304057600080fd5b50565b6200304e8162002ce6565b81146200305a57600080fd5b50565b620030688162002cf2565b81146200307457600080fd5b50565b620030828162002d26565b81146200308e57600080fd5b50565b6200309c8162002d30565b8114620030a857600080fd5b5056fe608060405260006004556000600560006101000a81548160ff021916908360ff1602179055506000600560016101000a81548160ff021916908360ff1602179055503480156200004e57600080fd5b506040516200229b3803806200229b8339818101604052810190620000749190620002f9565b856000806101000a81548173ffffffffffffffffffffffffffffffffffffffff021916908373ffffffffffffffffffffffffffffffffffffffff1602179055508460019080519060200190620000cc9291906200017b565b508360029080519060200190620000e59291906200017b565b508260038190555081600560026101000a81548173ffffffffffffffffffffffffffffffffffffffff021916908373ffffffffffffffffffffffffffffffffffffffff16021790555080600660006101000a81548173ffffffffffffffffffffffffffffffffffffffff021916908373ffffffffffffffffffffffffffffffffffffffff160217905550505050505050620005ff565b8280546200018990620004bc565b90600052602060002090601f016020900481019282620001ad5760008555620001f9565b82601f10620001c857805160ff1916838001178555620001f9565b82800160010185558215620001f9579182015b82811115620001f8578251825591602001919060010190620001db565b5b5090506200020891906200020c565b5090565b5b80821115620002275760008160009055506001016200020d565b5090565b6000620002426200023c84620003ea565b620003c1565b9050828152602081018484840111156200025b57600080fd5b6200026884828562000486565b509392505050565b600081519050620002818162000597565b92915050565b6000815190506200029881620005b1565b92915050565b600081519050620002af81620005cb565b92915050565b600082601f830112620002c757600080fd5b8151620002d98482602086016200022b565b91505092915050565b600081519050620002f381620005e5565b92915050565b60008060008060008060c087890312156200031357600080fd5b60006200032389828a0162000270565b965050602087015167ffffffffffffffff8111156200034157600080fd5b6200034f89828a01620002b5565b955050604087015167ffffffffffffffff8111156200036d57600080fd5b6200037b89828a01620002b5565b94505060606200038e89828a01620002e2565b9350506080620003a189828a016200029e565b92505060a0620003b489828a0162000287565b9150509295509295509295565b6000620003cd620003e0565b9050620003db8282620004f2565b919050565b6000604051905090565b600067ffffffffffffffff82111562000408576200040762000557565b5b620004138262000586565b9050602081019050919050565b60006200042d826200045c565b9050919050565b6000620004418262000420565b9050919050565b6000620004558262000420565b9050919050565b600073ffffffffffffffffffffffffffffffffffffffff82169050919050565b6000819050919050565b60005b83811015620004a657808201518184015260208101905062000489565b83811115620004b6576000848401525b50505050565b60006002820490506001821680620004d557607f821691505b60208210811415620004ec57620004eb62000528565b5b50919050565b620004fd8262000586565b810181811067ffffffffffffffff821117156200051f576200051e62000557565b5b80604052505050565b7f4e487b7100000000000000000000000000000000000000000000000000000000600052602260045260246000fd5b7f4e487b7100000000000000000000000000000000000000000000000000000000600052604160045260246000fd5b6000601f19601f8301169050919050565b620005a28162000420565b8114620005ae57600080fd5b50565b620005bc8162000434565b8114620005c857600080fd5b50565b620005d68162000448565b8114620005e257600080fd5b50565b620005f0816200047c565b8114620005fc57600080fd5b50565b611c8c806200060f6000396000f3fe608060405234801561001057600080fd5b50600436106101735760003560e01c80637284e416116100de578063ab38e45a11610097578063d3ecc36511610071578063d3ecc36514610432578063e2fdcc1714610450578063f06bb88c1461046e578063f670786f1461048c57610173565b8063ab38e45a146103c8578063c547092b146103e6578063cc6cb19a1461040257610173565b80637284e416146102f05780637aa21e9c1461030e5780637fb05c9e1461033e578063893d20e81461035c5780638da5cb5b1461037a578063a81e5d1a1461039857610173565b8063344612c711610130578063344612c71461023e5780633ceb4bd01461025c5780634151b32914610278578063528ccbf4146102965780635b27ae2e146102b4578063629e4ed0146102d257610173565b8063062c82361461017857806306fdde03146101aa57806317d7de7c146101c85780631a092541146101e65780631bd29b6c1461020457806323d12bcc14610222575b600080fd5b610192600480360381019061018d91906113e4565b6104bc565b6040516101a193929190611717565b60405180910390f35b6101b261057b565b6040516101bf919061167a565b60405180910390f35b6101d0610609565b6040516101dd919061167a565b60405180910390f35b6101ee61069b565b6040516101fb919061167a565b60405180910390f35b61020c61072d565b60405161021991906116fc565b60405180910390f35b61023c6004803603810190610237919061137a565b610733565b005b6102466109f8565b60405161025391906116fc565b60405180910390f35b6102766004803603810190610271919061133e565b6109fe565b005b610280610a71565b60405161028d919061165f565b60405180910390f35b61029e610a97565b6040516102ab91906116fc565b60405180910390f35b6102bc610ade565b6040516102c99190611629565b60405180910390f35b6102da610ba6565b6040516102e79190611755565b60405180910390f35b6102f8610bbd565b604051610305919061167a565b60405180910390f35b610328600480360381019061032391906113e4565b610c4b565b604051610335919061167a565b60405180910390f35b610346610cf9565b60405161035391906116fc565b60405180910390f35b610364610db5565b604051610371919061160e565b60405180910390f35b610382610dde565b60405161038f919061160e565b60405180910390f35b6103b260048036038101906103ad91906113e4565b610e02565b6040516103bf9190611629565b60405180910390f35b6103d0610e90565b6040516103dd91906116fc565b60405180910390f35b61040060048036038101906103fb91906113bb565b610e9a565b005b61041c60048036038101906104179190611315565b6110ee565b60405161042991906116fc565b60405180910390f35b61043a611106565b6040516104479190611755565b60405180910390f35b610458611119565b6040516104659190611644565b60405180910390f35b61047661113f565b60405161048391906116fc565b60405180910390f35b6104a660048036038101906104a191906113e4565b611149565b6040516104b391906116fc565b60405180910390f35b60076020528060005260406000206000915090508060000154908060010160009054906101000a900460ff16908060020180546104f8906119b8565b80601f0160208091040260200160405190810160405280929190818152602001828054610524906119b8565b80156105715780601f1061054657610100808354040283529160200191610571565b820191906000526020600020905b81548152906001019060200180831161055457829003601f168201915b5050505050905083565b60018054610588906119b8565b80601f01602080910402602001604051908101604052809291908181526020018280546105b4906119b8565b80156106015780601f106105d657610100808354040283529160200191610601565b820191906000526020600020905b8154815290600101906020018083116105e457829003601f168201915b505050505081565b606060018054610618906119b8565b80601f0160208091040260200160405190810160405280929190818152602001828054610644906119b8565b80156106915780601f1061066657610100808354040283529160200191610691565b820191906000526020600020905b81548152906001019060200180831161067457829003601f168201915b5050505050905090565b6060600280546106aa906119b8565b80601f01602080910402602001604051908101604052809291908181526020018280546106d6906119b8565b80156107235780601f106106f857610100808354040283529160200191610723565b820191906000526020600020905b81548152906001019060200180831161070657829003601f168201915b5050505050905090565b60045481565b60008054906101000a900473ffffffffffffffffffffffffffffffffffffffff1673ffffffffffffffffffffffffffffffffffffffff163373ffffffffffffffffffffffffffffffffffffffff16146107c1576040517f08c379a00000000000000000000000000000000000000000000000000000000081526004016107b89061169c565b60405180910390fd5b60076000600560019054906101000a900460ff1660ff1660ff1681526020019081526020016000206000015460045414610830576040517f08c379a0000000000000000000000000000000000000000000000000000000008152600401610827906116bc565b60405180910390fd5b600160076000600560019054906101000a900460ff1660ff1660ff16815260200190815260200160002060010160006101000a81548160ff0219169083151502179055508060076000600560019054906101000a900460ff1660ff1660ff16815260200190815260200160002060020190805190602001906108b39291906111cb565b506005600181819054906101000a900460ff16809291906108d390611a4f565b91906101000a81548160ff021916908360ff16021790555050600660009054906101000a900473ffffffffffffffffffffffffffffffffffffffff1673ffffffffffffffffffffffffffffffffffffffff16639f7fd1c06040518163ffffffff1660e01b8152600401600060405180830381600087803b15801561095657600080fd5b505af115801561096a573d6000803e3d6000fd5b505050507f24b5457e06de7784b7113505dffa8d9780c3fc4b72363f9e4485adf0503f44d26001600560019054906101000a900460ff166109ab919061188e565b600760006001600560019054906101000a900460ff166109cb919061188e565b60ff1660ff1681526020019081526020016000206040516109ed929190611770565b60405180910390a150565b60035481565b80600860008473ffffffffffffffffffffffffffffffffffffffff1673ffffffffffffffffffffffffffffffffffffffff1681526020019081526020016000206000828254610a4d9190611838565b925050819055508060046000828254610a669190611838565b925050819055505050565b600560029054906101000a900473ffffffffffffffffffffffffffffffffffffffff1681565b6000600860003373ffffffffffffffffffffffffffffffffffffffff1673ffffffffffffffffffffffffffffffffffffffff16815260200190815260200160002054905090565b6000600560009054906101000a900460ff1660ff16600560019054906101000a900460ff1660ff161180610b2457506000600560019054906101000a900460ff1660ff16105b15610b325760009050610ba3565b600560009054906101000a900460ff1660ff16600560019054906101000a900460ff1660ff161415610b675760009050610ba3565b60076000600560019054906101000a900460ff1660ff1660ff16815260200190815260200160002060010160009054906101000a900460ff1690505b90565b6000600560009054906101000a900460ff16905090565b60028054610bca906119b8565b80601f0160208091040260200160405190810160405280929190818152602001828054610bf6906119b8565b8015610c435780601f10610c1857610100808354040283529160200191610c43565b820191906000526020600020905b815481529060010190602001808311610c2657829003601f168201915b505050505081565b6060600760008360ff1660ff1681526020019081526020016000206002018054610c74906119b8565b80601f0160208091040260200160405190810160405280929190818152602001828054610ca0906119b8565b8015610ced5780601f10610cc257610100808354040283529160200191610ced565b820191906000526020600020905b815481529060010190602001808311610cd057829003601f168201915b50505050509050919050565b6000600560009054906101000a900460ff1660ff16600560019054906101000a900460ff1660ff161180610d3f57506000600560019054906101000a900460ff1660ff16105b15610d4d5760009050610db2565b600560009054906101000a900460ff1660ff16600560019054906101000a900460ff1660ff161415610d83576003549050610db2565b60076000600560019054906101000a900460ff1660ff1660ff1681526020019081526020016000206000015490505b90565b60008060009054906101000a900473ffffffffffffffffffffffffffffffffffffffff16905090565b60008054906101000a900473ffffffffffffffffffffffffffffffffffffffff1681565b6000600560009054906101000a900460ff1660ff168260ff161180610e2a575060008260ff16105b15610e385760009050610e8b565b600560009054906101000a900460ff1660ff168260ff161415610e5e5760009050610e8b565b600760008360ff1660ff16815260200190815260200160002060010160009054906101000a900460ff1690505b919050565b6000600354905090565b60008054906101000a900473ffffffffffffffffffffffffffffffffffffffff1673ffffffffffffffffffffffffffffffffffffffff163373ffffffffffffffffffffffffffffffffffffffff1614610f28576040517f08c379a0000000000000000000000000000000000000000000000000000000008152600401610f1f9061169c565b60405180910390fd5b6003548110610f6c576040517f08c379a0000000000000000000000000000000000000000000000000000000008152600401610f63906116dc565b60405180910390fd5b60405180606001604052808281526020016000151581526020016040518060400160405280600b81526020017f4e6f74207265616368656400000000000000000000000000000000000000000081525081525060076000600560009054906101000a900460ff1660ff1660ff1681526020019081526020016000206000820151816000015560208201518160010160006101000a81548160ff021916908315150217905550604082015181600201908051906020019061102d9291906111cb565b509050506005600081819054906101000a900460ff168092919061105090611a4f565b91906101000a81548160ff021916908360ff16021790555050600660009054906101000a900473ffffffffffffffffffffffffffffffffffffffff1673ffffffffffffffffffffffffffffffffffffffff16639f7fd1c06040518163ffffffff1660e01b8152600401600060405180830381600087803b1580156110d357600080fd5b505af11580156110e7573d6000803e3d6000fd5b5050505050565b60086020528060005260406000206000915090505481565b600560009054906101000a900460ff1681565b600660009054906101000a900473ffffffffffffffffffffffffffffffffffffffff1681565b6000600454905090565b6000600560009054906101000a900460ff1660ff168260ff161180611171575060008260ff16105b1561117f57600090506111c6565b600560009054906101000a900460ff1660ff168260ff1614156111a65760035490506111c6565b600760008360ff1660ff1681526020019081526020016000206000015490505b919050565b8280546111d7906119b8565b90600052602060002090601f0160209004810192826111f95760008555611240565b82601f1061121257805160ff1916838001178555611240565b82800160010185558215611240579182015b8281111561123f578251825591602001919060010190611224565b5b50905061124d9190611251565b5090565b5b8082111561126a576000816000905550600101611252565b5090565b600061128161127c846117c5565b6117a0565b90508281526020810184848401111561129957600080fd5b6112a4848285611976565b509392505050565b6000813590506112bb81611c11565b92915050565b600082601f8301126112d257600080fd5b81356112e284826020860161126e565b91505092915050565b6000813590506112fa81611c28565b92915050565b60008135905061130f81611c3f565b92915050565b60006020828403121561132757600080fd5b6000611335848285016112ac565b91505092915050565b6000806040838503121561135157600080fd5b600061135f858286016112ac565b9250506020611370858286016112eb565b9150509250929050565b60006020828403121561138c57600080fd5b600082013567ffffffffffffffff8111156113a657600080fd5b6113b2848285016112c1565b91505092915050565b6000602082840312156113cd57600080fd5b60006113db848285016112eb565b91505092915050565b6000602082840312156113f657600080fd5b600061140484828501611300565b91505092915050565b611416816118d9565b82525050565b611425816118eb565b82525050565b611434816118eb565b82525050565b6114438161192e565b82525050565b61145281611952565b82525050565b60006114638261180b565b61146d8185611827565b935061147d818560208601611985565b61148681611b06565b840191505092915050565b6000815461149e816119b8565b6114a88186611816565b945060018216600081146114c357600181146114d557611508565b60ff1983168652602086019350611508565b6114de856117f6565b60005b83811015611500578154818901526001820191506020810190506114e1565b808801955050505b50505092915050565b600061151e602e83611827565b915061152982611b24565b604082019050919050565b6000611541602783611827565b915061154c82611b73565b604082019050919050565b6000611564603583611827565b915061156f82611bc2565b604082019050919050565b600060608301600080840154905061159181611a04565b61159e60008701826115e1565b50600184015490506115af816119ea565b6115bc602087018261141c565b506002840185830360408701526115d38382611491565b925050819250505092915050565b6115ea81611917565b82525050565b6115f981611917565b82525050565b61160881611921565b82525050565b6000602082019050611623600083018461140d565b92915050565b600060208201905061163e600083018461142b565b92915050565b6000602082019050611659600083018461143a565b92915050565b60006020820190506116746000830184611449565b92915050565b600060208201905081810360008301526116948184611458565b905092915050565b600060208201905081810360008301526116b581611511565b9050919050565b600060208201905081810360008301526116d581611534565b9050919050565b600060208201905081810360008301526116f581611557565b9050919050565b600060208201905061171160008301846115f0565b92915050565b600060608201905061172c60008301866115f0565b611739602083018561142b565b818103604083015261174b8184611458565b9050949350505050565b600060208201905061176a60008301846115ff565b92915050565b600060408201905061178560008301856115ff565b8181036020830152611797818461157a565b90509392505050565b60006117aa6117bb565b90506117b68282611a1e565b919050565b6000604051905090565b600067ffffffffffffffff8211156117e0576117df611ad7565b5b6117e982611b06565b9050602081019050919050565b60008190508160005260206000209050919050565b600081519050919050565b600082825260208201905092915050565b600082825260208201905092915050565b600061184382611917565b915061184e83611917565b9250827fffffffffffffffffffffffffffffffffffffffffffffffffffffffffffffffff0382111561188357611882611a79565b5b828201905092915050565b600061189982611921565b91506118a483611921565b9250828210156118b7576118b6611a79565b5b828203905092915050565b600060ff82169050919050565b6000819050919050565b60006118e4826118f7565b9050919050565b60008115159050919050565b600073ffffffffffffffffffffffffffffffffffffffff82169050919050565b6000819050919050565b600060ff82169050919050565b600061193982611940565b9050919050565b600061194b826118f7565b9050919050565b600061195d82611964565b9050919050565b600061196f826118f7565b9050919050565b82818337600083830152505050565b60005b838110156119a3578082015181840152602081019050611988565b838111156119b2576000848401525b50505050565b600060028204905060018216806119d057607f821691505b602082108114156119e4576119e3611aa8565b5b50919050565b60006119fd6119f883611b17565b6118c2565b9050919050565b6000611a17611a1283611b17565b6118cf565b9050919050565b611a2782611b06565b810181811067ffffffffffffffff82111715611a4657611a45611ad7565b5b80604052505050565b6000611a5a82611921565b915060ff821415611a6e57611a6d611a79565b5b600182019050919050565b7f4e487b7100000000000000000000000000000000000000000000000000000000600052601160045260246000fd5b7f4e487b7100000000000000000000000000000000000000000000000000000000600052602260045260246000fd5b7f4e487b7100000000000000000000000000000000000000000000000000000000600052604160045260246000fd5b6000601f19601f8301169050919050565b60008160001c9050919050565b7f4f6e6c79207468652063616d706169676e206f776e65722063616e2063616c6c60008201527f20746869732066756e6374696f6e000000000000000000000000000000000000602082015250565b7f43757272656e74204d696c6573746f6e6520686173206e6f74206265656e207260008201527f6561636865642e00000000000000000000000000000000000000000000000000602082015250565b7f43616e206e6f7420736574206d696c6573746f6e652061626f7665206f72206560008201527f7175616c20746f20616d6f756e74206e65656465640000000000000000000000602082015250565b611c1a816118d9565b8114611c2557600080fd5b50565b611c3181611917565b8114611c3c57600080fd5b50565b611c4881611921565b8114611c5357600080fd5b5056fea2646970667358221220be7ff120c57766bbf8e2af99983a04418261d3f052ad0538d8a86ca2e461caa864736f6c63430008040033a264697066735822122001c54179d9e674dae78880f26e6cc25e3cee77808e735725c436765170c5a42264736f6c63430008040033",
  "linkReferences": {},
  "deployedLinkReferences": {}
}