{
  "_format": "hh-sol-artifact-1",
  "contractName": "Campaign",
  "sourceName": "src/contracts/Campaign.sol",
  "abi": [
    {
      "inputs": [
        {
          "internalType": "address",
          "name": "creator",
          "type": "address"
        },
        {
          "internalType": "string",
          "name": "campaignName",
          "type": "string"
        },
        {
          "internalType": "string",
          "name": "campaignDescription",
          "type": "string"
        },
        {
          "internalType": "uint256",
          "name": "amountNeeded",
          "type": "uint256"
        },
        {
          "internalType": "contract GiveCoin",
          "name": "_givecoin",
          "type": "address"
        },
        {
          "internalType": "contract Escrow",
          "name": "_escrow",
          "type": "address"
        }
      ],
      "stateMutability": "nonpayable",
      "type": "constructor"
    },
    {
      "anonymous": false,
      "inputs": [
        {
          "indexed": false,
          "internalType": "uint8",
          "name": "milestoneIndex",
          "type": "uint8"
        },
        {
          "components": [
            {
              "internalType": "uint256",
              "name": "amount",
              "type": "uint256"
            },
            {
              "internalType": "bool",
              "name": "approved",
              "type": "bool"
            },
            {
              "internalType": "string",
              "name": "transactionDescription",
              "type": "string"
            }
          ],
          "indexed": false,
          "internalType": "struct Campaign.Milestone",
          "name": "m",
          "type": "tuple"
        }
      ],
      "name": "MilestoneReached",
      "type": "event"
    },
    {
      "inputs": [],
      "name": "Milestones",
      "outputs": [
        {
          "internalType": "uint8",
          "name": "",
          "type": "uint8"
        }
      ],
      "stateMutability": "view",
      "type": "function"
    },
    {
      "inputs": [
        {
          "internalType": "string",
          "name": "parameter",
          "type": "string"
        }
      ],
      "name": "approveMilestone",
      "outputs": [],
      "stateMutability": "nonpayable",
      "type": "function"
    },
    {
      "inputs": [],
      "name": "description",
      "outputs": [
        {
          "internalType": "string",
          "name": "",
          "type": "string"
        }
      ],
      "stateMutability": "view",
      "type": "function"
    },
    {
      "inputs": [
        {
          "internalType": "address",
          "name": "donor",
          "type": "address"
        },
        {
          "internalType": "uint256",
          "name": "donation",
          "type": "uint256"
        }
      ],
      "name": "donated",
      "outputs": [],
      "stateMutability": "nonpayable",
      "type": "function"
    },
    {
      "inputs": [
        {
          "internalType": "address",
          "name": "",
          "type": "address"
        }
      ],
      "name": "donations",
      "outputs": [
        {
          "internalType": "uint256",
          "name": "",
          "type": "uint256"
        }
      ],
      "stateMutability": "view",
      "type": "function"
    },
    {
      "inputs": [],
      "name": "escrow",
      "outputs": [
        {
          "internalType": "contract Escrow",
          "name": "",
          "type": "address"
        }
      ],
      "stateMutability": "view",
      "type": "function"
    },
    {
      "inputs": [],
      "name": "getCurrentMilestoneAmount",
      "outputs": [
        {
          "internalType": "uint256",
          "name": "",
          "type": "uint256"
        }
      ],
      "stateMutability": "view",
      "type": "function"
    },
    {
      "inputs": [],
      "name": "getCurrentMilestoneApproved",
      "outputs": [
        {
          "internalType": "bool",
          "name": "",
          "type": "bool"
        }
      ],
      "stateMutability": "view",
      "type": "function"
    },
    {
      "inputs": [],
      "name": "getDescription",
      "outputs": [
        {
          "internalType": "string",
          "name": "",
          "type": "string"
        }
      ],
      "stateMutability": "view",
      "type": "function"
    },
    {
      "inputs": [],
      "name": "getDonatedAmount",
      "outputs": [
        {
          "internalType": "uint256",
          "name": "",
          "type": "uint256"
        }
      ],
      "stateMutability": "view",
      "type": "function"
    },
    {
      "inputs": [
        {
          "internalType": "uint8",
          "name": "index",
          "type": "uint8"
        }
      ],
      "name": "getMileStoneTransactionDescription",
      "outputs": [
        {
          "internalType": "string",
          "name": "",
          "type": "string"
        }
      ],
      "stateMutability": "view",
      "type": "function"
    },
    {
      "inputs": [
        {
          "internalType": "uint8",
          "name": "index",
          "type": "uint8"
        }
      ],
      "name": "getMilestoneAmountAt",
      "outputs": [
        {
          "internalType": "uint256",
          "name": "",
          "type": "uint256"
        }
      ],
      "stateMutability": "view",
      "type": "function"
    },
    {
      "inputs": [
        {
          "internalType": "uint8",
          "name": "index",
          "type": "uint8"
        }
      ],
      "name": "getMilestoneApprovedAt",
      "outputs": [
        {
          "internalType": "bool",
          "name": "",
          "type": "bool"
        }
      ],
      "stateMutability": "view",
      "type": "function"
    },
    {
      "inputs": [],
      "name": "getMilestones",
      "outputs": [
        {
          "internalType": "uint8",
          "name": "",
          "type": "uint8"
        }
      ],
      "stateMutability": "view",
      "type": "function"
    },
    {
      "inputs": [],
      "name": "getName",
      "outputs": [
        {
          "internalType": "string",
          "name": "",
          "type": "string"
        }
      ],
      "stateMutability": "view",
      "type": "function"
    },
    {
      "inputs": [],
      "name": "getOwner",
      "outputs": [
        {
          "internalType": "address",
          "name": "",
          "type": "address"
        }
      ],
      "stateMutability": "view",
      "type": "function"
    },
    {
      "inputs": [],
      "name": "getTotalAmountNeeded",
      "outputs": [
        {
          "internalType": "uint256",
          "name": "",
          "type": "uint256"
        }
      ],
      "stateMutability": "view",
      "type": "function"
    },
    {
      "inputs": [],
      "name": "getTotalAmountReceived",
      "outputs": [
        {
          "internalType": "uint256",
          "name": "",
          "type": "uint256"
        }
      ],
      "stateMutability": "view",
      "type": "function"
    },
    {
      "inputs": [],
      "name": "givecoin",
      "outputs": [
        {
          "internalType": "contract GiveCoin",
          "name": "",
          "type": "address"
        }
      ],
      "stateMutability": "view",
      "type": "function"
    },
    {
      "inputs": [
        {
          "internalType": "uint8",
          "name": "",
          "type": "uint8"
        }
      ],
      "name": "milestones",
      "outputs": [
        {
          "internalType": "uint256",
          "name": "amount",
          "type": "uint256"
        },
        {
          "internalType": "bool",
          "name": "approved",
          "type": "bool"
        },
        {
          "internalType": "string",
          "name": "transactionDescription",
          "type": "string"
        }
      ],
      "stateMutability": "view",
      "type": "function"
    },
    {
      "inputs": [],
      "name": "name",
      "outputs": [
        {
          "internalType": "string",
          "name": "",
          "type": "string"
        }
      ],
      "stateMutability": "view",
      "type": "function"
    },
    {
      "inputs": [],
      "name": "owner",
      "outputs": [
        {
          "internalType": "address",
          "name": "",
          "type": "address"
        }
      ],
      "stateMutability": "view",
      "type": "function"
    },
    {
      "inputs": [
        {
          "internalType": "uint256",
          "name": "amount",
          "type": "uint256"
        }
      ],
      "name": "setMilestone",
      "outputs": [],
      "stateMutability": "nonpayable",
      "type": "function"
    },
    {
      "inputs": [],
      "name": "totalAmountNeeded",
      "outputs": [
        {
          "internalType": "uint256",
          "name": "",
          "type": "uint256"
        }
      ],
      "stateMutability": "view",
      "type": "function"
    },
    {
      "inputs": [],
      "name": "totalAmountReceived",
      "outputs": [
        {
          "internalType": "uint256",
          "name": "",
          "type": "uint256"
        }
      ],
      "stateMutability": "view",
      "type": "function"
    }
  ],
  "bytecode": "0x608060405260006004556000600560006101000a81548160ff021916908360ff1602179055506000600560016101000a81548160ff021916908360ff1602179055503480156200004e57600080fd5b506040516200229b3803806200229b8339818101604052810190620000749190620002f9565b856000806101000a81548173ffffffffffffffffffffffffffffffffffffffff021916908373ffffffffffffffffffffffffffffffffffffffff1602179055508460019080519060200190620000cc9291906200017b565b508360029080519060200190620000e59291906200017b565b508260038190555081600560026101000a81548173ffffffffffffffffffffffffffffffffffffffff021916908373ffffffffffffffffffffffffffffffffffffffff16021790555080600660006101000a81548173ffffffffffffffffffffffffffffffffffffffff021916908373ffffffffffffffffffffffffffffffffffffffff160217905550505050505050620005ff565b8280546200018990620004bc565b90600052602060002090601f016020900481019282620001ad5760008555620001f9565b82601f10620001c857805160ff1916838001178555620001f9565b82800160010185558215620001f9579182015b82811115620001f8578251825591602001919060010190620001db565b5b5090506200020891906200020c565b5090565b5b80821115620002275760008160009055506001016200020d565b5090565b6000620002426200023c84620003ea565b620003c1565b9050828152602081018484840111156200025b57600080fd5b6200026884828562000486565b509392505050565b600081519050620002818162000597565b92915050565b6000815190506200029881620005b1565b92915050565b600081519050620002af81620005cb565b92915050565b600082601f830112620002c757600080fd5b8151620002d98482602086016200022b565b91505092915050565b600081519050620002f381620005e5565b92915050565b60008060008060008060c087890312156200031357600080fd5b60006200032389828a0162000270565b965050602087015167ffffffffffffffff8111156200034157600080fd5b6200034f89828a01620002b5565b955050604087015167ffffffffffffffff8111156200036d57600080fd5b6200037b89828a01620002b5565b94505060606200038e89828a01620002e2565b9350506080620003a189828a016200029e565b92505060a0620003b489828a0162000287565b9150509295509295509295565b6000620003cd620003e0565b9050620003db8282620004f2565b919050565b6000604051905090565b600067ffffffffffffffff82111562000408576200040762000557565b5b620004138262000586565b9050602081019050919050565b60006200042d826200045c565b9050919050565b6000620004418262000420565b9050919050565b6000620004558262000420565b9050919050565b600073ffffffffffffffffffffffffffffffffffffffff82169050919050565b6000819050919050565b60005b83811015620004a657808201518184015260208101905062000489565b83811115620004b6576000848401525b50505050565b60006002820490506001821680620004d557607f821691505b60208210811415620004ec57620004eb62000528565b5b50919050565b620004fd8262000586565b810181811067ffffffffffffffff821117156200051f576200051e62000557565b5b80604052505050565b7f4e487b7100000000000000000000000000000000000000000000000000000000600052602260045260246000fd5b7f4e487b7100000000000000000000000000000000000000000000000000000000600052604160045260246000fd5b6000601f19601f8301169050919050565b620005a28162000420565b8114620005ae57600080fd5b50565b620005bc8162000434565b8114620005c857600080fd5b50565b620005d68162000448565b8114620005e257600080fd5b50565b620005f0816200047c565b8114620005fc57600080fd5b50565b611c8c806200060f6000396000f3fe608060405234801561001057600080fd5b50600436106101735760003560e01c80637284e416116100de578063ab38e45a11610097578063d3ecc36511610071578063d3ecc36514610432578063e2fdcc1714610450578063f06bb88c1461046e578063f670786f1461048c57610173565b8063ab38e45a146103c8578063c547092b146103e6578063cc6cb19a1461040257610173565b80637284e416146102f05780637aa21e9c1461030e5780637fb05c9e1461033e578063893d20e81461035c5780638da5cb5b1461037a578063a81e5d1a1461039857610173565b8063344612c711610130578063344612c71461023e5780633ceb4bd01461025c5780634151b32914610278578063528ccbf4146102965780635b27ae2e146102b4578063629e4ed0146102d257610173565b8063062c82361461017857806306fdde03146101aa57806317d7de7c146101c85780631a092541146101e65780631bd29b6c1461020457806323d12bcc14610222575b600080fd5b610192600480360381019061018d91906113e4565b6104bc565b6040516101a193929190611717565b60405180910390f35b6101b261057b565b6040516101bf919061167a565b60405180910390f35b6101d0610609565b6040516101dd919061167a565b60405180910390f35b6101ee61069b565b6040516101fb919061167a565b60405180910390f35b61020c61072d565b60405161021991906116fc565b60405180910390f35b61023c6004803603810190610237919061137a565b610733565b005b6102466109f8565b60405161025391906116fc565b60405180910390f35b6102766004803603810190610271919061133e565b6109fe565b005b610280610a71565b60405161028d919061165f565b60405180910390f35b61029e610a97565b6040516102ab91906116fc565b60405180910390f35b6102bc610ade565b6040516102c99190611629565b60405180910390f35b6102da610ba6565b6040516102e79190611755565b60405180910390f35b6102f8610bbd565b604051610305919061167a565b60405180910390f35b610328600480360381019061032391906113e4565b610c4b565b604051610335919061167a565b60405180910390f35b610346610cf9565b60405161035391906116fc565b60405180910390f35b610364610db5565b604051610371919061160e565b60405180910390f35b610382610dde565b60405161038f919061160e565b60405180910390f35b6103b260048036038101906103ad91906113e4565b610e02565b6040516103bf9190611629565b60405180910390f35b6103d0610e90565b6040516103dd91906116fc565b60405180910390f35b61040060048036038101906103fb91906113bb565b610e9a565b005b61041c60048036038101906104179190611315565b6110ee565b60405161042991906116fc565b60405180910390f35b61043a611106565b6040516104479190611755565b60405180910390f35b610458611119565b6040516104659190611644565b60405180910390f35b61047661113f565b60405161048391906116fc565b60405180910390f35b6104a660048036038101906104a191906113e4565b611149565b6040516104b391906116fc565b60405180910390f35b60076020528060005260406000206000915090508060000154908060010160009054906101000a900460ff16908060020180546104f8906119b8565b80601f0160208091040260200160405190810160405280929190818152602001828054610524906119b8565b80156105715780601f1061054657610100808354040283529160200191610571565b820191906000526020600020905b81548152906001019060200180831161055457829003601f168201915b5050505050905083565b60018054610588906119b8565b80601f01602080910402602001604051908101604052809291908181526020018280546105b4906119b8565b80156106015780601f106105d657610100808354040283529160200191610601565b820191906000526020600020905b8154815290600101906020018083116105e457829003601f168201915b505050505081565b606060018054610618906119b8565b80601f0160208091040260200160405190810160405280929190818152602001828054610644906119b8565b80156106915780601f1061066657610100808354040283529160200191610691565b820191906000526020600020905b81548152906001019060200180831161067457829003601f168201915b5050505050905090565b6060600280546106aa906119b8565b80601f01602080910402602001604051908101604052809291908181526020018280546106d6906119b8565b80156107235780601f106106f857610100808354040283529160200191610723565b820191906000526020600020905b81548152906001019060200180831161070657829003601f168201915b5050505050905090565b60045481565b60008054906101000a900473ffffffffffffffffffffffffffffffffffffffff1673ffffffffffffffffffffffffffffffffffffffff163373ffffffffffffffffffffffffffffffffffffffff16146107c1576040517f08c379a00000000000000000000000000000000000000000000000000000000081526004016107b89061169c565b60405180910390fd5b60076000600560019054906101000a900460ff1660ff1660ff1681526020019081526020016000206000015460045414610830576040517f08c379a0000000000000000000000000000000000000000000000000000000008152600401610827906116bc565b60405180910390fd5b600160076000600560019054906101000a900460ff1660ff1660ff16815260200190815260200160002060010160006101000a81548160ff0219169083151502179055508060076000600560019054906101000a900460ff1660ff1660ff16815260200190815260200160002060020190805190602001906108b39291906111cb565b506005600181819054906101000a900460ff16809291906108d390611a4f565b91906101000a81548160ff021916908360ff16021790555050600660009054906101000a900473ffffffffffffffffffffffffffffffffffffffff1673ffffffffffffffffffffffffffffffffffffffff16639f7fd1c06040518163ffffffff1660e01b8152600401600060405180830381600087803b15801561095657600080fd5b505af115801561096a573d6000803e3d6000fd5b505050507f24b5457e06de7784b7113505dffa8d9780c3fc4b72363f9e4485adf0503f44d26001600560019054906101000a900460ff166109ab919061188e565b600760006001600560019054906101000a900460ff166109cb919061188e565b60ff1660ff1681526020019081526020016000206040516109ed929190611770565b60405180910390a150565b60035481565b80600860008473ffffffffffffffffffffffffffffffffffffffff1673ffffffffffffffffffffffffffffffffffffffff1681526020019081526020016000206000828254610a4d9190611838565b925050819055508060046000828254610a669190611838565b925050819055505050565b600560029054906101000a900473ffffffffffffffffffffffffffffffffffffffff1681565b6000600860003373ffffffffffffffffffffffffffffffffffffffff1673ffffffffffffffffffffffffffffffffffffffff16815260200190815260200160002054905090565b6000600560009054906101000a900460ff1660ff16600560019054906101000a900460ff1660ff161180610b2457506000600560019054906101000a900460ff1660ff16105b15610b325760009050610ba3565b600560009054906101000a900460ff1660ff16600560019054906101000a900460ff1660ff161415610b675760009050610ba3565b60076000600560019054906101000a900460ff1660ff1660ff16815260200190815260200160002060010160009054906101000a900460ff1690505b90565b6000600560009054906101000a900460ff16905090565b60028054610bca906119b8565b80601f0160208091040260200160405190810160405280929190818152602001828054610bf6906119b8565b8015610c435780601f10610c1857610100808354040283529160200191610c43565b820191906000526020600020905b815481529060010190602001808311610c2657829003601f168201915b505050505081565b6060600760008360ff1660ff1681526020019081526020016000206002018054610c74906119b8565b80601f0160208091040260200160405190810160405280929190818152602001828054610ca0906119b8565b8015610ced5780601f10610cc257610100808354040283529160200191610ced565b820191906000526020600020905b815481529060010190602001808311610cd057829003601f168201915b50505050509050919050565b6000600560009054906101000a900460ff1660ff16600560019054906101000a900460ff1660ff161180610d3f57506000600560019054906101000a900460ff1660ff16105b15610d4d5760009050610db2565b600560009054906101000a900460ff1660ff16600560019054906101000a900460ff1660ff161415610d83576003549050610db2565b60076000600560019054906101000a900460ff1660ff1660ff1681526020019081526020016000206000015490505b90565b60008060009054906101000a900473ffffffffffffffffffffffffffffffffffffffff16905090565b60008054906101000a900473ffffffffffffffffffffffffffffffffffffffff1681565b6000600560009054906101000a900460ff1660ff168260ff161180610e2a575060008260ff16105b15610e385760009050610e8b565b600560009054906101000a900460ff1660ff168260ff161415610e5e5760009050610e8b565b600760008360ff1660ff16815260200190815260200160002060010160009054906101000a900460ff1690505b919050565b6000600354905090565b60008054906101000a900473ffffffffffffffffffffffffffffffffffffffff1673ffffffffffffffffffffffffffffffffffffffff163373ffffffffffffffffffffffffffffffffffffffff1614610f28576040517f08c379a0000000000000000000000000000000000000000000000000000000008152600401610f1f9061169c565b60405180910390fd5b6003548110610f6c576040517f08c379a0000000000000000000000000000000000000000000000000000000008152600401610f63906116dc565b60405180910390fd5b60405180606001604052808281526020016000151581526020016040518060400160405280600b81526020017f4e6f74207265616368656400000000000000000000000000000000000000000081525081525060076000600560009054906101000a900460ff1660ff1660ff1681526020019081526020016000206000820151816000015560208201518160010160006101000a81548160ff021916908315150217905550604082015181600201908051906020019061102d9291906111cb565b509050506005600081819054906101000a900460ff168092919061105090611a4f565b91906101000a81548160ff021916908360ff16021790555050600660009054906101000a900473ffffffffffffffffffffffffffffffffffffffff1673ffffffffffffffffffffffffffffffffffffffff16639f7fd1c06040518163ffffffff1660e01b8152600401600060405180830381600087803b1580156110d357600080fd5b505af11580156110e7573d6000803e3d6000fd5b5050505050565b60086020528060005260406000206000915090505481565b600560009054906101000a900460ff1681565b600660009054906101000a900473ffffffffffffffffffffffffffffffffffffffff1681565b6000600454905090565b6000600560009054906101000a900460ff1660ff168260ff161180611171575060008260ff16105b1561117f57600090506111c6565b600560009054906101000a900460ff1660ff168260ff1614156111a65760035490506111c6565b600760008360ff1660ff1681526020019081526020016000206000015490505b919050565b8280546111d7906119b8565b90600052602060002090601f0160209004810192826111f95760008555611240565b82601f1061121257805160ff1916838001178555611240565b82800160010185558215611240579182015b8281111561123f578251825591602001919060010190611224565b5b50905061124d9190611251565b5090565b5b8082111561126a576000816000905550600101611252565b5090565b600061128161127c846117c5565b6117a0565b90508281526020810184848401111561129957600080fd5b6112a4848285611976565b509392505050565b6000813590506112bb81611c11565b92915050565b600082601f8301126112d257600080fd5b81356112e284826020860161126e565b91505092915050565b6000813590506112fa81611c28565b92915050565b60008135905061130f81611c3f565b92915050565b60006020828403121561132757600080fd5b6000611335848285016112ac565b91505092915050565b6000806040838503121561135157600080fd5b600061135f858286016112ac565b9250506020611370858286016112eb565b9150509250929050565b60006020828403121561138c57600080fd5b600082013567ffffffffffffffff8111156113a657600080fd5b6113b2848285016112c1565b91505092915050565b6000602082840312156113cd57600080fd5b60006113db848285016112eb565b91505092915050565b6000602082840312156113f657600080fd5b600061140484828501611300565b91505092915050565b611416816118d9565b82525050565b611425816118eb565b82525050565b611434816118eb565b82525050565b6114438161192e565b82525050565b61145281611952565b82525050565b60006114638261180b565b61146d8185611827565b935061147d818560208601611985565b61148681611b06565b840191505092915050565b6000815461149e816119b8565b6114a88186611816565b945060018216600081146114c357600181146114d557611508565b60ff1983168652602086019350611508565b6114de856117f6565b60005b83811015611500578154818901526001820191506020810190506114e1565b808801955050505b50505092915050565b600061151e602e83611827565b915061152982611b24565b604082019050919050565b6000611541602783611827565b915061154c82611b73565b604082019050919050565b6000611564603583611827565b915061156f82611bc2565b604082019050919050565b600060608301600080840154905061159181611a04565b61159e60008701826115e1565b50600184015490506115af816119ea565b6115bc602087018261141c565b506002840185830360408701526115d38382611491565b925050819250505092915050565b6115ea81611917565b82525050565b6115f981611917565b82525050565b61160881611921565b82525050565b6000602082019050611623600083018461140d565b92915050565b600060208201905061163e600083018461142b565b92915050565b6000602082019050611659600083018461143a565b92915050565b60006020820190506116746000830184611449565b92915050565b600060208201905081810360008301526116948184611458565b905092915050565b600060208201905081810360008301526116b581611511565b9050919050565b600060208201905081810360008301526116d581611534565b9050919050565b600060208201905081810360008301526116f581611557565b9050919050565b600060208201905061171160008301846115f0565b92915050565b600060608201905061172c60008301866115f0565b611739602083018561142b565b818103604083015261174b8184611458565b9050949350505050565b600060208201905061176a60008301846115ff565b92915050565b600060408201905061178560008301856115ff565b8181036020830152611797818461157a565b90509392505050565b60006117aa6117bb565b90506117b68282611a1e565b919050565b6000604051905090565b600067ffffffffffffffff8211156117e0576117df611ad7565b5b6117e982611b06565b9050602081019050919050565b60008190508160005260206000209050919050565b600081519050919050565b600082825260208201905092915050565b600082825260208201905092915050565b600061184382611917565b915061184e83611917565b9250827fffffffffffffffffffffffffffffffffffffffffffffffffffffffffffffffff0382111561188357611882611a79565b5b828201905092915050565b600061189982611921565b91506118a483611921565b9250828210156118b7576118b6611a79565b5b828203905092915050565b600060ff82169050919050565b6000819050919050565b60006118e4826118f7565b9050919050565b60008115159050919050565b600073ffffffffffffffffffffffffffffffffffffffff82169050919050565b6000819050919050565b600060ff82169050919050565b600061193982611940565b9050919050565b600061194b826118f7565b9050919050565b600061195d82611964565b9050919050565b600061196f826118f7565b9050919050565b82818337600083830152505050565b60005b838110156119a3578082015181840152602081019050611988565b838111156119b2576000848401525b50505050565b600060028204905060018216806119d057607f821691505b602082108114156119e4576119e3611aa8565b5b50919050565b60006119fd6119f883611b17565b6118c2565b9050919050565b6000611a17611a1283611b17565b6118cf565b9050919050565b611a2782611b06565b810181811067ffffffffffffffff82111715611a4657611a45611ad7565b5b80604052505050565b6000611a5a82611921565b915060ff821415611a6e57611a6d611a79565b5b600182019050919050565b7f4e487b7100000000000000000000000000000000000000000000000000000000600052601160045260246000fd5b7f4e487b7100000000000000000000000000000000000000000000000000000000600052602260045260246000fd5b7f4e487b7100000000000000000000000000000000000000000000000000000000600052604160045260246000fd5b6000601f19601f8301169050919050565b60008160001c9050919050565b7f4f6e6c79207468652063616d706169676e206f776e65722063616e2063616c6c60008201527f20746869732066756e6374696f6e000000000000000000000000000000000000602082015250565b7f43757272656e74204d696c6573746f6e6520686173206e6f74206265656e207260008201527f6561636865642e00000000000000000000000000000000000000000000000000602082015250565b7f43616e206e6f7420736574206d696c6573746f6e652061626f7665206f72206560008201527f7175616c20746f20616d6f756e74206e65656465640000000000000000000000602082015250565b611c1a816118d9565b8114611c2557600080fd5b50565b611c3181611917565b8114611c3c57600080fd5b50565b611c4881611921565b8114611c5357600080fd5b5056fea2646970667358221220be7ff120c57766bbf8e2af99983a04418261d3f052ad0538d8a86ca2e461caa864736f6c63430008040033",
  "linkReferences": {},
  "deployedLinkReferences": {}
}