{
  "contractName": "Campaign",
  "abi": [
    {
      "inputs": [
        {
          "internalType": "address",
          "name": "creator",
          "type": "address"
        },
        {
          "internalType": "string",
          "name": "campaignName",
          "type": "string"
        },
        {
          "internalType": "string",
          "name": "campaignDescription",
          "type": "string"
        },
        {
          "internalType": "uint256",
          "name": "amountNeeded",
          "type": "uint256"
        },
        {
          "internalType": "contract GiveCoin",
          "name": "_givecoin",
          "type": "address"
        },
        {
          "internalType": "contract Escrow",
          "name": "_escrow",
          "type": "address"
        }
      ],
      "payable": false,
      "stateMutability": "nonpayable",
      "type": "constructor"
    },
    {
      "anonymous": false,
      "inputs": [
        {
          "indexed": false,
          "internalType": "uint8",
          "name": "milestoneIndex",
          "type": "uint8"
        },
        {
          "components": [
            {
              "internalType": "uint256",
              "name": "amount",
              "type": "uint256"
            },
            {
              "internalType": "bool",
              "name": "approved",
              "type": "bool"
            },
            {
              "internalType": "string",
              "name": "transactionDescription",
              "type": "string"
            }
          ],
          "indexed": false,
          "internalType": "struct Campaign.Milestone",
          "name": "m",
          "type": "tuple"
        }
      ],
      "name": "MilestoneReached",
      "type": "event"
    },
    {
      "constant": true,
      "inputs": [],
      "name": "Milestones",
      "outputs": [
        {
          "internalType": "uint8",
          "name": "",
          "type": "uint8"
        }
      ],
      "payable": false,
      "stateMutability": "view",
      "type": "function"
    },
    {
      "constant": true,
      "inputs": [],
      "name": "description",
      "outputs": [
        {
          "internalType": "string",
          "name": "",
          "type": "string"
        }
      ],
      "payable": false,
      "stateMutability": "view",
      "type": "function"
    },
    {
      "constant": true,
      "inputs": [
        {
          "internalType": "address",
          "name": "",
          "type": "address"
        }
      ],
      "name": "donations",
      "outputs": [
        {
          "internalType": "uint256",
          "name": "",
          "type": "uint256"
        }
      ],
      "payable": false,
      "stateMutability": "view",
      "type": "function"
    },
    {
      "constant": true,
      "inputs": [],
      "name": "escrow",
      "outputs": [
        {
          "internalType": "contract Escrow",
          "name": "",
          "type": "address"
        }
      ],
      "payable": false,
      "stateMutability": "view",
      "type": "function"
    },
    {
      "constant": true,
      "inputs": [],
      "name": "givecoin",
      "outputs": [
        {
          "internalType": "contract GiveCoin",
          "name": "",
          "type": "address"
        }
      ],
      "payable": false,
      "stateMutability": "view",
      "type": "function"
    },
    {
      "constant": true,
      "inputs": [
        {
          "internalType": "uint8",
          "name": "",
          "type": "uint8"
        }
      ],
      "name": "milestones",
      "outputs": [
        {
          "internalType": "uint256",
          "name": "amount",
          "type": "uint256"
        },
        {
          "internalType": "bool",
          "name": "approved",
          "type": "bool"
        },
        {
          "internalType": "string",
          "name": "transactionDescription",
          "type": "string"
        }
      ],
      "payable": false,
      "stateMutability": "view",
      "type": "function"
    },
    {
      "constant": true,
      "inputs": [],
      "name": "name",
      "outputs": [
        {
          "internalType": "string",
          "name": "",
          "type": "string"
        }
      ],
      "payable": false,
      "stateMutability": "view",
      "type": "function"
    },
    {
      "constant": true,
      "inputs": [],
      "name": "owner",
      "outputs": [
        {
          "internalType": "address",
          "name": "",
          "type": "address"
        }
      ],
      "payable": false,
      "stateMutability": "view",
      "type": "function"
    },
    {
      "constant": true,
      "inputs": [],
      "name": "totalAmountNeeded",
      "outputs": [
        {
          "internalType": "uint256",
          "name": "",
          "type": "uint256"
        }
      ],
      "payable": false,
      "stateMutability": "view",
      "type": "function"
    },
    {
      "constant": true,
      "inputs": [],
      "name": "totalAmountReceived",
      "outputs": [
        {
          "internalType": "uint256",
          "name": "",
          "type": "uint256"
        }
      ],
      "payable": false,
      "stateMutability": "view",
      "type": "function"
    },
    {
      "constant": false,
      "inputs": [
        {
          "internalType": "uint256",
          "name": "amount",
          "type": "uint256"
        }
      ],
      "name": "setMilestone",
      "outputs": [],
      "payable": false,
      "stateMutability": "nonpayable",
      "type": "function"
    },
    {
      "constant": false,
      "inputs": [
        {
          "internalType": "string",
          "name": "parameter",
          "type": "string"
        }
      ],
      "name": "approveMilestone",
      "outputs": [],
      "payable": false,
      "stateMutability": "nonpayable",
      "type": "function"
    },
    {
      "constant": false,
      "inputs": [
        {
          "internalType": "address",
          "name": "donor",
          "type": "address"
        },
        {
          "internalType": "uint256",
          "name": "donation",
          "type": "uint256"
        }
      ],
      "name": "donated",
      "outputs": [],
      "payable": false,
      "stateMutability": "nonpayable",
      "type": "function"
    },
    {
      "constant": true,
      "inputs": [],
      "name": "getOwner",
      "outputs": [
        {
          "internalType": "address",
          "name": "",
          "type": "address"
        }
      ],
      "payable": false,
      "stateMutability": "view",
      "type": "function"
    },
    {
      "constant": true,
      "inputs": [],
      "name": "getDescription",
      "outputs": [
        {
          "internalType": "string",
          "name": "",
          "type": "string"
        }
      ],
      "payable": false,
      "stateMutability": "view",
      "type": "function"
    },
    {
      "constant": true,
      "inputs": [],
      "name": "getName",
      "outputs": [
        {
          "internalType": "string",
          "name": "",
          "type": "string"
        }
      ],
      "payable": false,
      "stateMutability": "view",
      "type": "function"
    },
    {
      "constant": true,
      "inputs": [],
      "name": "getTotalAmountNeeded",
      "outputs": [
        {
          "internalType": "uint256",
          "name": "",
          "type": "uint256"
        }
      ],
      "payable": false,
      "stateMutability": "view",
      "type": "function"
    },
    {
      "constant": true,
      "inputs": [],
      "name": "getTotalAmountReceived",
      "outputs": [
        {
          "internalType": "uint256",
          "name": "",
          "type": "uint256"
        }
      ],
      "payable": false,
      "stateMutability": "view",
      "type": "function"
    },
    {
      "constant": true,
      "inputs": [],
      "name": "getMilestones",
      "outputs": [
        {
          "internalType": "uint8",
          "name": "",
          "type": "uint8"
        }
      ],
      "payable": false,
      "stateMutability": "view",
      "type": "function"
    },
    {
      "constant": true,
      "inputs": [
        {
          "internalType": "uint8",
          "name": "index",
          "type": "uint8"
        }
      ],
      "name": "getMilestoneApprovedAt",
      "outputs": [
        {
          "internalType": "bool",
          "name": "",
          "type": "bool"
        }
      ],
      "payable": false,
      "stateMutability": "view",
      "type": "function"
    },
    {
      "constant": true,
      "inputs": [
        {
          "internalType": "uint8",
          "name": "index",
          "type": "uint8"
        }
      ],
      "name": "getMilestoneAmountAt",
      "outputs": [
        {
          "internalType": "uint256",
          "name": "",
          "type": "uint256"
        }
      ],
      "payable": false,
      "stateMutability": "view",
      "type": "function"
    },
    {
      "constant": true,
      "inputs": [],
      "name": "getCurrentMilestoneApproved",
      "outputs": [
        {
          "internalType": "bool",
          "name": "",
          "type": "bool"
        }
      ],
      "payable": false,
      "stateMutability": "view",
      "type": "function"
    },
    {
      "constant": true,
      "inputs": [],
      "name": "getCurrentMilestoneAmount",
      "outputs": [
        {
          "internalType": "uint256",
          "name": "",
          "type": "uint256"
        }
      ],
      "payable": false,
      "stateMutability": "view",
      "type": "function"
    },
    {
      "constant": true,
      "inputs": [],
      "name": "getDonatedAmount",
      "outputs": [
        {
          "internalType": "uint256",
          "name": "",
          "type": "uint256"
        }
      ],
      "payable": false,
      "stateMutability": "view",
      "type": "function"
    },
    {
      "constant": true,
      "inputs": [
        {
          "internalType": "uint8",
          "name": "index",
          "type": "uint8"
        }
      ],
      "name": "getMileStoneTransactionDescription",
      "outputs": [
        {
          "internalType": "string",
          "name": "",
          "type": "string"
        }
      ],
      "payable": false,
      "stateMutability": "view",
      "type": "function"
    }
  ],
  "bytecode": "0x608060405260006004556005805461ffff191690553480156200002157600080fd5b506040516200157238038062001572833981016040819052620000449162000201565b600080546001600160a01b0319166001600160a01b038816179055845162000074906001906020880190620000d3565b5083516200008a906002906020870190620000d3565b506003929092556005805462010000600160b01b031916620100006001600160a01b0393841602179055600680546001600160a01b03191691909216179055506200039d915050565b828054600181600116156101000203166002900490600052602060002090601f016020900481019282601f106200011657805160ff191683800117855562000146565b8280016001018555821562000146579182015b828111156200014657825182559160200191906001019062000129565b506200015492915062000158565b5090565b6200017591905b808211156200015457600081556001016200015f565b90565b805162000185816200036d565b92915050565b8051620001858162000387565b600082601f830112620001aa57600080fd5b8151620001c1620001bb82620002ec565b620002c5565b91508082526020830160208301858383011115620001de57600080fd5b620001eb8382846200033a565b50505092915050565b8051620001858162000392565b60008060008060008060c087890312156200021b57600080fd5b600062000229898962000178565b96505060208701516001600160401b038111156200024657600080fd5b6200025489828a0162000198565b95505060408701516001600160401b038111156200027157600080fd5b6200027f89828a0162000198565b94505060606200029289828a01620001f4565b9350506080620002a589828a016200018b565b92505060a0620002b889828a016200018b565b9150509295509295509295565b6040518181016001600160401b0381118282101715620002e457600080fd5b604052919050565b60006001600160401b038211156200030357600080fd5b506020601f91909101601f19160190565b600062000185826200032e565b6000620001858262000314565b6001600160a01b031690565b60005b83811015620003575781810151838201526020016200033d565b8381111562000367576000848401525b50505050565b620003788162000314565b81146200038457600080fd5b50565b620003788162000321565b620003788162000175565b6111c580620003ad6000396000f3fe608060405234801561001057600080fd5b50600436106101735760003560e01c80637284e416116100de578063ab38e45a11610097578063d3ecc36511610071578063d3ecc365146102d5578063e2fdcc17146102dd578063f06bb88c146102e5578063f670786f146102ed57610173565b8063ab38e45a146102a7578063c547092b146102af578063cc6cb19a146102c257610173565b80637284e416146102545780637aa21e9c1461025c5780637fb05c9e1461026f578063893d20e8146102775780638da5cb5b1461028c578063a81e5d1a1461029457610173565b8063344612c711610130578063344612c7146101f25780633ceb4bd0146101fa5780634151b3291461020d578063528ccbf4146102225780635b27ae2e1461022a578063629e4ed01461023f57610173565b8063062c82361461017857806306fdde03146101a357806317d7de7c146101b85780631a092541146101c05780631bd29b6c146101c857806323d12bcc146101dd575b600080fd5b61018b610186366004610d16565b610300565b60405161019a93929190610ff4565b60405180910390f35b6101ab6103b0565b60405161019a9190610f9e565b6101ab61043d565b6101ab6104d3565b6101d0610531565b60405161019a9190610fe6565b6101f06101eb366004610cc3565b610537565b005b6101d06106d1565b6101f0610208366004610c89565b6106d7565b610215610701565b60405161019a9190610f90565b6101d0610716565b610232610729565b60405161019a9190610f82565b610247610795565b60405161019a919061102a565b6101ab61079e565b6101ab61026a366004610d16565b6107f6565b6101d06108a2565b61027f610909565b60405161019a9190610f74565b61027f610918565b6102326102a2366004610d16565b610927565b6101d0610982565b6101f06102bd366004610cf8565b610988565b6101d06102d0366004610c63565b610ac9565b610247610adb565b610215610ae4565b6101d0610af3565b6101d06102fb366004610d16565b610af9565b60076020908152600091825260409182902080546001808301546002808501805488516101009582161595909502600019011691909104601f8101879004870284018701909752868352929560ff909116949192918301828280156103a65780601f1061037b576101008083540402835291602001916103a6565b820191906000526020600020905b81548152906001019060200180831161038957829003601f168201915b5050505050905083565b60018054604080516020600284861615610100026000190190941693909304601f810184900484028201840190925281815292918301828280156104355780601f1061040a57610100808354040283529160200191610435565b820191906000526020600020905b81548152906001019060200180831161041857829003601f168201915b505050505081565b60018054604080516020601f600260001961010087891615020190951694909404938401819004810282018101909252828152606093909290918301828280156104c85780601f1061049d576101008083540402835291602001916104c8565b820191906000526020600020905b8154815290600101906020018083116104ab57829003601f168201915b505050505090505b90565b60028054604080516020601f60001961010060018716150201909416859004938401819004810282018101909252828152606093909290918301828280156104c85780601f1061049d576101008083540402835291602001916104c8565b60045481565b6000546001600160a01b0316331461056a5760405162461bcd60e51b815260040161056190610fb6565b60405180910390fd5b600554610100900460ff16600090815260076020526040902054600454146105a45760405162461bcd60e51b815260040161056190610fc6565b6005805460ff61010091829004811660009081526007602090815260408083206001908101805460ff1916909117905594549390930490911681529190912082516105f792600290920191840190610b50565b506005805460ff61010080830482166001019091160261ff00199091161790556006546040805163027dff4760e61b815290516001600160a01b0390921691639f7fd1c09160048082019260009290919082900301818387803b15801561065d57600080fd5b505af1158015610671573d6000803e3d6000fd5b505060055460001960ff6101009092048216019081166000908152600760205260409081902090517f24b5457e06de7784b7113505dffa8d9780c3fc4b72363f9e4485adf0503f44d294506106c69350611038565b60405180910390a150565b60035481565b6001600160a01b039091166000908152600860205260409020805482019055600480549091019055565b6005546201000090046001600160a01b031681565b3360009081526008602052604090205490565b60055460009060ff808216610100909204161180610745575060005b15610752575060006104d0565b600554610100810460ff9081169116141561076f575060006104d0565b5060055460ff6101009091048116600090815260076020526040902060010154166104d0565b60055460ff1690565b6002805460408051602060018416156101000260001901909316849004601f810184900484028201840190925281815292918301828280156104355780601f1061040a57610100808354040283529160200191610435565b60ff81166000908152600760209081526040918290206002908101805484516001821615610100026000190190911692909204601f810184900484028301840190945283825260609391929091908301828280156108955780601f1061086a57610100808354040283529160200191610895565b820191906000526020600020905b81548152906001019060200180831161087857829003601f168201915b505050505090505b919050565b60055460009060ff8082166101009092041611806108be575060005b156108cb575060006104d0565b600554610100810460ff908116911614156108e957506003546104d0565b50600554610100900460ff166000908152600760205260409020546104d0565b6000546001600160a01b031690565b6000546001600160a01b031681565b60055460009060ff908116908316118061093f575060005b1561094c5750600061089d565b60055460ff838116911614156109645750600061089d565b5060ff8082166000908152600760205260409020600101541661089d565b60035490565b6000546001600160a01b031633146109b25760405162461bcd60e51b815260040161056190610fb6565b60035481106109d35760405162461bcd60e51b815260040161056190610fd6565b604080516060810182528281526000602080830182815284518086018652600b81526a139bdd081c995858da195960aa1b8184015284860190815260055460ff168452600783529490922083518155915160018301805460ff19169115159190911790559251805192939192610a4f9260028501920190610b50565b50506005805460ff8082166001011660ff19909116179055506006546040805163027dff4760e61b815290516001600160a01b0390921691639f7fd1c09160048082019260009290919082900301818387803b158015610aae57600080fd5b505af1158015610ac2573d6000803e3d6000fd5b5050505050565b60086020526000908152604090205481565b60055460ff1681565b6006546001600160a01b031681565b60045490565b60055460009060ff9081169083161180610b11575060005b15610b1e5750600061089d565b60055460ff83811691161415610b37575060035461089d565b5060ff811660009081526007602052604090205461089d565b828054600181600116156101000203166002900490600052602060002090601f016020900481019282601f10610b9157805160ff1916838001178555610bbe565b82800160010185558215610bbe579182015b82811115610bbe578251825591602001919060010190610ba3565b50610bca929150610bce565b5090565b6104d091905b80821115610bca5760008155600101610bd4565b8035610bf381611159565b92915050565b600082601f830112610c0a57600080fd5b8135610c1d610c188261107f565b611058565b91508082526020830160208301858383011115610c3957600080fd5b610c448382846110ed565b50505092915050565b8035610bf381611170565b8035610bf381611179565b600060208284031215610c7557600080fd5b6000610c818484610be8565b949350505050565b60008060408385031215610c9c57600080fd5b6000610ca88585610be8565b9250506020610cb985828601610c4d565b9150509250929050565b600060208284031215610cd557600080fd5b813567ffffffffffffffff811115610cec57600080fd5b610c8184828501610bf9565b600060208284031215610d0a57600080fd5b6000610c818484610c4d565b600060208284031215610d2857600080fd5b6000610c818484610c58565b610d3d816110c6565b82525050565b610d3d816110d1565b610d3d816110e2565b6000610d60826110b3565b610d6a81856110b7565b9350610d7a8185602086016110f9565b610d838161114f565b9093019392505050565b600081546001811660008114610daa5760018114610dd057610e0f565b607f6002830416610dbb81876110b7565b60ff1984168152955050602085019250610e0f565b60028204610dde81876110b7565b9550610de9856110a7565b60005b82811015610e0857815488820152600190910190602001610dec565b8701945050505b505092915050565b6000610e24602e836110b7565b7f4f6e6c79207468652063616d706169676e206f776e65722063616e2063616c6c81526d103a3434b990333ab731ba34b7b760911b602082015260400192915050565b6000610e746027836110b7565b7f43757272656e74204d696c6573746f6e6520686173206e6f74206265656e207281526632b0b1b432b21760c91b602082015260400192915050565b6000610ebd6035836110b7565b7f43616e206e6f7420736574206d696c6573746f6e652061626f7665206f7220658152741c5d585b081d1bc8185b5bdd5b9d081b9959591959605a1b602082015260400192915050565b80546000906060840190610f1a8161113c565b610f248682610f62565b50506001830154610f3481611129565b610f416020870182610d43565b50600284018583036040870152610f588382610d8d565b9695505050505050565b610d3d816104d0565b610d3d816110c0565b60208101610bf38284610d34565b60208101610bf38284610d43565b60208101610bf38284610d4c565b60208082528101610faf8184610d55565b9392505050565b60208082528101610bf381610e17565b60208082528101610bf381610e67565b60208082528101610bf381610eb0565b60208101610bf38284610f62565b606081016110028286610f62565b61100f6020830185610d43565b81810360408301526110218184610d55565b95945050505050565b60208101610bf38284610f6b565b604081016110468285610f6b565b8181036020830152610c818184610f07565b60405181810167ffffffffffffffff8111828210171561107757600080fd5b604052919050565b600067ffffffffffffffff82111561109657600080fd5b506020601f91909101601f19160190565b60009081526020902090565b5190565b90815260200190565b60ff1690565b6000610bf3826110d6565b151590565b6001600160a01b031690565b6000610bf3826110c6565b82818337506000910152565b60005b838110156111145781810151838201526020016110fc565b83811115611123576000848401525b50505050565b6000610bf3611137836104d0565b6110c0565b6000610bf361114a836104d0565b6104d0565b601f01601f191690565b611162816110c6565b811461116d57600080fd5b50565b611162816104d0565b611162816110c056fea365627a7a72315820675fd96fc1e012563264bcdf79bc1d0c4971ce99d976b75abebdcb44a535d2206c6578706572696d656e74616cf564736f6c63430005110040",
  "source": "pragma solidity >=0.4.22 <0.9.0;\r\npragma experimental ABIEncoderV2;\r\n\r\nimport \"./GiveCoin.sol\";\r\nimport \"./Escrow.sol\";\r\n\r\ncontract Campaign {\r\n    address public owner;\r\n    string public name;\r\n    string public description;\r\n    uint256 public totalAmountNeeded;\r\n    uint256 public totalAmountReceived = 0;\r\n    uint8 public Milestones = 0;\r\n    uint8 private currentMilestoneIndex = 0;\r\n\r\n    GiveCoin public givecoin;\r\n\r\n    Escrow public escrow;\r\n\r\n    struct Milestone {\r\n        uint256 amount;\r\n        bool approved;\r\n        string transactionDescription;\r\n    }\r\n\r\n    mapping(uint8 => Milestone) public milestones;\r\n    mapping(address => uint256) public donations;\r\n\r\n    event MilestoneReached(uint8 milestoneIndex, Milestone m);\r\n\r\n    constructor(\r\n        address creator,\r\n        string memory campaignName,\r\n        string memory campaignDescription,\r\n        uint256 amountNeeded,\r\n        GiveCoin _givecoin,\r\n        Escrow _escrow\r\n    ) public {\r\n        owner = creator;\r\n        name = campaignName;\r\n        description = campaignDescription;\r\n        totalAmountNeeded = amountNeeded;\r\n        givecoin = _givecoin;\r\n        escrow = _escrow;\r\n    }\r\n\r\n    modifier onlyOwner() {\r\n        require(\r\n            msg.sender == owner,\r\n            \"Only the campaign owner can call this function\"\r\n        );\r\n        _;\r\n    }\r\n\r\n    function setMilestone(uint256 amount) public onlyOwner {\r\n        require(\r\n            amount < totalAmountNeeded,\r\n            \"Can not set milestone above or equal to amount needed\"\r\n        );\r\n        milestones[Milestones] = Milestone({\r\n            amount: amount,\r\n            approved: false,\r\n            transactionDescription: \"Not reached\"\r\n        });\r\n        Milestones++;\r\n\r\n        escrow.issueCoin();\r\n    }\r\n\r\n    function approveMilestone(string memory parameter) public onlyOwner {\r\n        require(\r\n            totalAmountReceived == milestones[currentMilestoneIndex].amount,\r\n            \"Current Milestone has not been reached.\"\r\n        );\r\n        milestones[currentMilestoneIndex].approved = true;\r\n        milestones[currentMilestoneIndex].transactionDescription = parameter; //set the transactionDescription\r\n\r\n        currentMilestoneIndex++;\r\n\r\n        escrow.issueCoin();\r\n\r\n        emit MilestoneReached(\r\n            currentMilestoneIndex - 1,\r\n            milestones[currentMilestoneIndex - 1]\r\n        );\r\n    }\r\n\r\n    function donated(address donor, uint256 donation) public {\r\n        donations[donor] += donation;\r\n        totalAmountReceived += donation;\r\n    }\r\n\r\n    // function withdraw() public onlyOwner {\r\n    //     require(\r\n    //         totalAmountReceived >= totalAmountNeeded,\r\n    //         \"Campaign goal not reached\"\r\n    //     );\r\n\r\n    //     // Transfer all collected givecoins to the campaign owner\r\n    //     require(\r\n    //         givecoin.transfer(owner, totalAmountReceived),\r\n    //         \"Withdrawal failed\"\r\n    //     );\r\n    // }\r\n    //\r\n\r\n    function getOwner() public view returns (address) {\r\n        return owner;\r\n    }\r\n\r\n    function getDescription() public view returns (string memory) {\r\n        return description;\r\n    }\r\n\r\n    function getName() public view returns (string memory) {\r\n        return name;\r\n    }\r\n\r\n    function getTotalAmountNeeded() public view returns (uint256) {\r\n        return totalAmountNeeded;\r\n    }\r\n\r\n    function getTotalAmountReceived() public view returns (uint256) {\r\n        return totalAmountReceived;\r\n    }\r\n\r\n    function getMilestones() public view returns (uint8) {\r\n        return Milestones;\r\n    }\r\n\r\n    function getMilestoneApprovedAt(uint8 index) public view returns (bool) {\r\n        if (index > Milestones || index < 0) {\r\n            return false;\r\n        } else if (index == Milestones) {\r\n            return false;\r\n        } else {\r\n            return milestones[index].approved;\r\n        }\r\n    }\r\n\r\n    function getMilestoneAmountAt(uint8 index) public view returns (uint256) {\r\n        if (index > Milestones || index < 0) {\r\n            return 0;\r\n        } else if (index == Milestones) {\r\n            return totalAmountNeeded;\r\n        } else {\r\n            return milestones[index].amount;\r\n        }\r\n    }\r\n\r\n    function getCurrentMilestoneApproved() public view returns (bool) {\r\n        if (currentMilestoneIndex > Milestones || currentMilestoneIndex < 0) {\r\n            return false;\r\n        } else if (currentMilestoneIndex == Milestones) {\r\n            return false;\r\n        } else {\r\n            return milestones[currentMilestoneIndex].approved;\r\n        }\r\n    }\r\n\r\n    function getCurrentMilestoneAmount() public view returns (uint256) {\r\n        if (currentMilestoneIndex > Milestones || currentMilestoneIndex < 0) {\r\n            return 0;\r\n        } else if (currentMilestoneIndex == Milestones) {\r\n            return totalAmountNeeded;\r\n        } else {\r\n            return milestones[currentMilestoneIndex].amount;\r\n        }\r\n    }\r\n\r\n    function getDonatedAmount() public view returns (uint256) {\r\n        return donations[msg.sender];\r\n    }\r\n\r\n    function getMileStoneTransactionDescription(\r\n        uint8 index\r\n    ) public view returns (string memory) {\r\n        return milestones[index].transactionDescription;\r\n    } //Getting transactionDescription\r\n}\r\n",
  "sourcePath": "C:\\Users\\rishi\\OneDrive\\Desktop\\term7\\blockchain\\givecoin-dapp\\src\\contracts\\Campaign.sol",
  "compiler": {
    "name": "solc",
    "version": "0.5.17+commit.d19bba13.Emscripten.clang"
  },
  "schemaVersion": "3.4.16",
  "updatedAt": "2024-12-09T14:09:51.154Z",
  "networkType": "ethereum",
  "devdoc": {
    "methods": {}
  },
  "userdoc": {
    "methods": {}
  }
}