{
  "contractName": "Escrow",
  "abi": [
    {
      "inputs": [
        {
          "internalType": "contract GiveCoin",
          "name": "_givecoin",
          "type": "address"
        }
      ],
      "payable": false,
      "stateMutability": "nonpayable",
      "type": "constructor"
    },
    {
      "anonymous": false,
      "inputs": [
        {
          "indexed": false,
          "internalType": "contract Campaign",
          "name": "campaign",
          "type": "address"
        },
        {
          "indexed": false,
          "internalType": "uint8",
          "name": "milestone",
          "type": "uint8"
        }
      ],
      "name": "AwaitingApproval",
      "type": "event"
    },
    {
      "anonymous": false,
      "inputs": [
        {
          "indexed": true,
          "internalType": "address",
          "name": "creator",
          "type": "address"
        },
        {
          "indexed": false,
          "internalType": "string",
          "name": "name",
          "type": "string"
        },
        {
          "indexed": false,
          "internalType": "uint256",
          "name": "amountNeeded",
          "type": "uint256"
        }
      ],
      "name": "CampaignCreated",
      "type": "event"
    },
    {
      "anonymous": false,
      "inputs": [
        {
          "indexed": false,
          "internalType": "address",
          "name": "donor",
          "type": "address"
        },
        {
          "indexed": false,
          "internalType": "uint256",
          "name": "amount",
          "type": "uint256"
        }
      ],
      "name": "DonationReceived",
      "type": "event"
    },
    {
      "anonymous": false,
      "inputs": [
        {
          "indexed": false,
          "internalType": "address",
          "name": "donor",
          "type": "address"
        },
        {
          "indexed": false,
          "internalType": "uint256",
          "name": "amount",
          "type": "uint256"
        }
      ],
      "name": "OverflowReturned",
      "type": "event"
    },
    {
      "constant": true,
      "inputs": [
        {
          "internalType": "uint256",
          "name": "",
          "type": "uint256"
        }
      ],
      "name": "campaigns",
      "outputs": [
        {
          "internalType": "contract Campaign",
          "name": "",
          "type": "address"
        }
      ],
      "payable": false,
      "stateMutability": "view",
      "type": "function"
    },
    {
      "constant": true,
      "inputs": [
        {
          "internalType": "address",
          "name": "",
          "type": "address"
        },
        {
          "internalType": "address",
          "name": "",
          "type": "address"
        }
      ],
      "name": "donationInfo",
      "outputs": [
        {
          "internalType": "uint256",
          "name": "",
          "type": "uint256"
        }
      ],
      "payable": false,
      "stateMutability": "view",
      "type": "function"
    },
    {
      "constant": true,
      "inputs": [
        {
          "internalType": "uint256",
          "name": "",
          "type": "uint256"
        }
      ],
      "name": "donators",
      "outputs": [
        {
          "internalType": "address",
          "name": "",
          "type": "address"
        }
      ],
      "payable": false,
      "stateMutability": "view",
      "type": "function"
    },
    {
      "constant": true,
      "inputs": [],
      "name": "givecoin",
      "outputs": [
        {
          "internalType": "contract GiveCoin",
          "name": "",
          "type": "address"
        }
      ],
      "payable": false,
      "stateMutability": "view",
      "type": "function"
    },
    {
      "constant": true,
      "inputs": [
        {
          "internalType": "address",
          "name": "",
          "type": "address"
        }
      ],
      "name": "hasDonated",
      "outputs": [
        {
          "internalType": "bool",
          "name": "",
          "type": "bool"
        }
      ],
      "payable": false,
      "stateMutability": "view",
      "type": "function"
    },
    {
      "constant": true,
      "inputs": [
        {
          "internalType": "address",
          "name": "",
          "type": "address"
        }
      ],
      "name": "isDonating",
      "outputs": [
        {
          "internalType": "bool",
          "name": "",
          "type": "bool"
        }
      ],
      "payable": false,
      "stateMutability": "view",
      "type": "function"
    },
    {
      "constant": true,
      "inputs": [],
      "name": "owner",
      "outputs": [
        {
          "internalType": "address",
          "name": "",
          "type": "address"
        }
      ],
      "payable": false,
      "stateMutability": "view",
      "type": "function"
    },
    {
      "constant": false,
      "inputs": [
        {
          "internalType": "string",
          "name": "name",
          "type": "string"
        },
        {
          "internalType": "string",
          "name": "description",
          "type": "string"
        },
        {
          "internalType": "uint256",
          "name": "amountNeeded",
          "type": "uint256"
        }
      ],
      "name": "createCampaign",
      "outputs": [],
      "payable": false,
      "stateMutability": "nonpayable",
      "type": "function"
    },
    {
      "constant": true,
      "inputs": [],
      "name": "getCampaigns",
      "outputs": [
        {
          "internalType": "contract Campaign[]",
          "name": "",
          "type": "address[]"
        }
      ],
      "payable": false,
      "stateMutability": "view",
      "type": "function"
    },
    {
      "constant": true,
      "inputs": [
        {
          "internalType": "address",
          "name": "account",
          "type": "address"
        },
        {
          "internalType": "address",
          "name": "campaign",
          "type": "address"
        }
      ],
      "name": "getDonationInfo",
      "outputs": [
        {
          "internalType": "uint256",
          "name": "",
          "type": "uint256"
        }
      ],
      "payable": false,
      "stateMutability": "view",
      "type": "function"
    },
    {
      "constant": true,
      "inputs": [
        {
          "internalType": "address",
          "name": "account",
          "type": "address"
        }
      ],
      "name": "getAllDonationsForAccount",
      "outputs": [
        {
          "internalType": "uint256[]",
          "name": "",
          "type": "uint256[]"
        },
        {
          "internalType": "address[]",
          "name": "",
          "type": "address[]"
        }
      ],
      "payable": false,
      "stateMutability": "view",
      "type": "function"
    },
    {
      "constant": false,
      "inputs": [
        {
          "internalType": "uint256",
          "name": "amount",
          "type": "uint256"
        },
        {
          "internalType": "contract Campaign",
          "name": "campaign",
          "type": "address"
        }
      ],
      "name": "donateCoin",
      "outputs": [],
      "payable": false,
      "stateMutability": "nonpayable",
      "type": "function"
    },
    {
      "constant": false,
      "inputs": [],
      "name": "issueCoin",
      "outputs": [],
      "payable": false,
      "stateMutability": "nonpayable",
      "type": "function"
    }
  ],
  "bytecode": "0x608060405234801561001057600080fd5b506040516130293803806130298339818101604052602081101561003357600080fd5b5051600180546001600160a01b039092166001600160a01b03199283161790556002805490911633179055612fbc8061006d6000396000f3fe60806040523480156200001157600080fd5b5060043610620000e25760003560e01c8063a6b036331162000099578063c4c87c2f116200006f578063c4c87c2f1462000305578063c637b5341462000334578063d4009873146200035d578063ffa56a57146200038e57620000e2565b8063a6b036331462000246578063ac62f56614620002a2578063c368bdae14620002c257620000e2565b8063141961bc14620000e757806317294a1114620001235780632eccc6a114620001605780634151b32914620002265780638da5cb5b14620002305780639f7fd1c0146200023a575b600080fd5b6200010760048036036020811015620000ff57600080fd5b5035620004c6565b604080516001600160a01b039092168252519081900360200190f35b6200014c600480360360208110156200013b57600080fd5b50356001600160a01b0316620004ee565b604080519115158252519081900360200190f35b62000189600480360360208110156200017857600080fd5b50356001600160a01b031662000503565b604051808060200180602001838103835285818151815260200191508051906020019060200280838360005b83811015620001cf578181015183820152602001620001b5565b50505050905001838103825284818151815260200191508051906020019060200280838360005b8381101562000210578181015183820152602001620001f6565b5050505090500194505050505060405180910390f35b620001076200064b565b620001076200065a565b6200024462000669565b005b620002506200137b565b60408051602080825283518183015283519192839290830191858101910280838360005b838110156200028e57818101518382015260200162000274565b505050509050019250505060405180910390f35b6200010760048036036020811015620002ba57600080fd5b5035620013df565b620002f360048036036040811015620002da57600080fd5b506001600160a01b0381358116916020013516620013ed565b60408051918252519081900360200190f35b62000244600480360360408110156200031d57600080fd5b50803590602001356001600160a01b031662001418565b6200014c600480360360208110156200034c57600080fd5b50356001600160a01b0316620016d8565b620002f3600480360360408110156200037557600080fd5b506001600160a01b0381358116916020013516620016ed565b6200024460048036036060811015620003a657600080fd5b810190602081018135640100000000811115620003c257600080fd5b820183602082011115620003d557600080fd5b80359060200191846001830284011164010000000083111715620003f857600080fd5b91908080601f01602080910402602001604051908101604052809392919081815260200183838082843760009201919091525092959493602081019350359150506401000000008111156200044c57600080fd5b8201836020820111156200045f57600080fd5b803590602001918460018302840111640100000000831117156200048257600080fd5b91908080601f01602080910402602001604051908101604052809392919081815260200183838082843760009201919091525092955050913592506200170a915050565b60008181548110620004d457fe5b6000918252602090912001546001600160a01b0316905081565b60066020526000908152604090205460ff1681565b6000546040805182815260208084028201019091526060918291829082801562000537578160200160208202803883390190505b50905060608260405190808252806020026020018201604052801562000567578160200160208202803883390190505b50905060005b838110156200063f5760008082815481106200058557fe5b60009182526020808320909101546001600160a01b038b8116845260058352604080852091909216808552925290912054909150819060ff161562000634576001600160a01b03808a166000908152600460209081526040808320938516835292905220548551869085908110620005f957fe5b602002602001018181525050808484815181106200061357fe5b60200260200101906001600160a01b031690816001600160a01b0316815250505b50506001016200056d565b50909350915050915091565b6001546001600160a01b031681565b6002546001600160a01b031681565b60005b60035481101562001378576000600382815481106200068757fe5b60009182526020808320909101546001600160a01b0316808352600790915260408220805460ff1916905591505b6000548110156200136d576000808281548110620006cf57fe5b60009182526020808320909101546001600160a01b038681168452600483526040808520919092168085529252909120549091508190801562001361576000836001600160a01b0316638da5cb5b6040518163ffffffff1660e01b815260040160206040518083038186803b1580156200074857600080fd5b505afa1580156200075d573d6000803e3d6000fd5b505050506040513d60208110156200077457600080fd5b5051604080516306f4a6db60e21b815290519192506001600160a01b03861691631bd29b6c91600480820192602092909190829003018186803b158015620007bb57600080fd5b505afa158015620007d0573d6000803e3d6000fd5b505050506040513d6020811015620007e757600080fd5b50516040805163344612c760e01b815290516001600160a01b0387169163344612c7916004808301926020929190829003018186803b1580156200082a57600080fd5b505afa1580156200083f573d6000803e3d6000fd5b505050506040513d60208110156200085657600080fd5b5051141562000908576001600160a01b03808716600081815260046020818152604080842089871685528252808420849055600154815163a9059cbb60e01b8152938401959095526024830188905251939094169363a9059cbb9360448084019492939192918390030190829087803b158015620008d357600080fd5b505af1158015620008e8573d6000803e3d6000fd5b505050506040513d6020811015620008ff57600080fd5b506200135f9050565b836001600160a01b031663344612c76040518163ffffffff1660e01b815260040160206040518083038186803b1580156200094257600080fd5b505afa15801562000957573d6000803e3d6000fd5b505050506040513d60208110156200096e57600080fd5b5051604080516306f4a6db60e21b8152905184916001600160a01b03881691631bd29b6c91600480820192602092909190829003018186803b158015620009b457600080fd5b505afa158015620009c9573d6000803e3d6000fd5b505050506040513d6020811015620009e057600080fd5b505101111562000ce2576000846001600160a01b031663344612c76040518163ffffffff1660e01b815260040160206040518083038186803b15801562000a2657600080fd5b505afa15801562000a3b573d6000803e3d6000fd5b505050506040513d602081101562000a5257600080fd5b5051604080516306f4a6db60e21b8152905185916001600160a01b03891691631bd29b6c91600480820192602092909190829003018186803b15801562000a9857600080fd5b505afa15801562000aad573d6000803e3d6000fd5b505050506040513d602081101562000ac457600080fd5b50516001600160a01b03808b1660008181526004602081815260408084208d8716855290915280832083905580516303ceb4bd60e41b815291820193909352949093019490940380880360248501529351939450881692633ceb4bd092604480820193929182900301818387803b15801562000b3f57600080fd5b505af115801562000b54573d6000803e3d6000fd5b50506001546040805163a9059cbb60e01b81526001600160a01b0387811660048301528689036024830152915191909216935063a9059cbb925060448083019260209291908290030181600087803b15801562000bb057600080fd5b505af115801562000bc5573d6000803e3d6000fd5b505050506040513d602081101562000bdc57600080fd5b50506001546040805163a9059cbb60e01b81526001600160a01b038a81166004830152602482018590529151919092169163a9059cbb9160448083019260209291908290030181600087803b15801562000c3557600080fd5b505af115801562000c4a573d6000803e3d6000fd5b505050506040513d602081101562000c6157600080fd5b5050604080516001600160a01b03891681528285036020820152815160008051602062002f68833981519152929181900390910190a1604080516001600160a01b03891681526020810183905281517fe7dd4f80f6ff68561913383e28071b6be913a089a10d8aaef764198aab0d1e9d929181900390910190a1506200135f565b836001600160a01b031663d3ecc3656040518163ffffffff1660e01b815260040160206040518083038186803b15801562000d1c57600080fd5b505afa15801562000d31573d6000803e3d6000fd5b505050506040513d602081101562000d4857600080fd5b505160ff1662000e97576001600160a01b038087166000818152600460208181526040808420898716855290915280832083905580516303ceb4bd60e41b81529182019390935260248101869052915192871692633ceb4bd092604480820193929182900301818387803b15801562000dc057600080fd5b505af115801562000dd5573d6000803e3d6000fd5b50506001546040805163a9059cbb60e01b81526001600160a01b03868116600483015260248201889052915191909216935063a9059cbb925060448083019260209291908290030181600087803b15801562000e3057600080fd5b505af115801562000e45573d6000803e3d6000fd5b505050506040513d602081101562000e5c57600080fd5b5050604080516001600160a01b038816815260208101849052815160008051602062002f68833981519152929181900390910190a16200135f565b836001600160a01b0316635b27ae2e6040518163ffffffff1660e01b815260040160206040518083038186803b15801562000ed157600080fd5b505afa15801562000ee6573d6000803e3d6000fd5b505050506040513d602081101562000efd57600080fd5b50511562000f3d5760405162461bcd60e51b815260040180806020018281038252607381526020018062002ed26073913960800191505060405180910390fd5b6000846001600160a01b0316631bd29b6c6040518163ffffffff1660e01b815260040160206040518083038186803b15801562000f7957600080fd5b505afa15801562000f8e573d6000803e3d6000fd5b505050506040513d602081101562000fa557600080fd5b505160408051633fd82e4f60e11b815290516001600160a01b03881691637fb05c9e916004808301926020929190829003018186803b15801562000fe857600080fd5b505afa15801562000ffd573d6000803e3d6000fd5b505050506040513d60208110156200101457600080fd5b5051039050808311156200121d576001600160a01b0380881660008181526004602081815260408084208a871685529091528083208689039081905581516303ceb4bd60e41b8152928301949094528388036024830152519293891692633ceb4bd09260448084019391929182900301818387803b1580156200109657600080fd5b505af1158015620010ab573d6000803e3d6000fd5b50506001546040805163a9059cbb60e01b81526001600160a01b038881166004830152868a036024830152915191909216935063a9059cbb925060448083019260209291908290030181600087803b1580156200110757600080fd5b505af11580156200111c573d6000803e3d6000fd5b505050506040513d60208110156200113357600080fd5b5050604080516001600160a01b038a1681528286036020820152815160008051602062002f68833981519152929181900390910190a17e49a5cfcc93c423ab3a6c3883b935d2f510f6753b596798105be632005150be86876001600160a01b031663d3ecc3656040518163ffffffff1660e01b815260040160206040518083038186803b158015620011c457600080fd5b505afa158015620011d9573d6000803e3d6000fd5b505050506040513d6020811015620011f057600080fd5b5051604080516001600160a01b03909316835260ff90911660208301528051918290030190a1506200135d565b6001600160a01b0380881660008181526004602081815260408084208a8716855290915280832083905580516303ceb4bd60e41b81529182019390935260248101879052915192881692633ceb4bd092604480820193929182900301818387803b1580156200128b57600080fd5b505af1158015620012a0573d6000803e3d6000fd5b50506001546040805163a9059cbb60e01b81526001600160a01b03878116600483015260248201899052915191909216935063a9059cbb925060448083019260209291908290030181600087803b158015620012fb57600080fd5b505af115801562001310573d6000803e3d6000fd5b505050506040513d60208110156200132757600080fd5b5050604080516001600160a01b038916815260208101859052815160008051602062002f68833981519152929181900390910190a15b505b505b505050600101620006b5565b50506001016200066c565b50565b60606000805480602002602001604051908101604052809291908181526020018280548015620013d557602002820191906000526020600020905b81546001600160a01b03168152600190910190602001808311620013b6575b5050505050905090565b60038181548110620004d457fe5b6001600160a01b03918216600090815260046020908152604080832093909416825291909152205490565b6000821162001463576040805162461bcd60e51b81526020600482015260126024820152710416d6f756e742063616e6e6f7420626520360741b604482015290519081900360640190fd5b6001600160a01b038116620014bf576040805162461bcd60e51b815260206004820181905260248201527f43616d706169676e2063616e206e6f742062652061206e756c6c2076616c7565604482015290519081900360640190fd5b336001600160a01b0316816001600160a01b0316638da5cb5b6040518163ffffffff1660e01b815260040160206040518083038186803b1580156200150357600080fd5b505afa15801562001518573d6000803e3d6000fd5b505050506040513d60208110156200152f57600080fd5b50516001600160a01b03161415620015795760405162461bcd60e51b815260040180806020018281038252602381526020018062002f456023913960400191505060405180910390fd5b3360008181526004602081815260408084206001600160a01b0387811680875291845282862080548a01905586865260058452828620918652908352818520805460ff191660019081179091555482516323b872dd60e01b8152948501969096523060248501526044840188905290519416936323b872dd936064808501948390030190829087803b1580156200160f57600080fd5b505af115801562001624573d6000803e3d6000fd5b505050506040513d60208110156200163b57600080fd5b50503360009081526006602052604090205460ff16620016b0576003805460018181019092557fc2575a0e9e593c00f959f8c92f12db2869c3395a3b0502d05e2516446f71f85b0180546001600160a01b031916339081179091556000908152600660205260409020805460ff191690911790555b336000908152600760205260409020805460ff19166001179055620016d462000669565b5050565b60076020526000908152604090205460ff1681565b600460209081526000928352604080842090915290825290205481565b600033848484600160009054906101000a90046001600160a01b031630604051620017359062001951565b6001600160a01b038088168252606082018590528381166080830152821660a082015260c060208083018281528851928401929092528751604084019160e0850191908a019080838360005b838110156200179b57818101518382015260200162001781565b50505050905090810190601f168015620017c95780820380516001836020036101000a031916815260200191505b50838103825287518152875160209182019189019080838360005b83811015620017fe578181015183820152602001620017e4565b50505050905090810190601f1680156200182c5780820380516001836020036101000a031916815260200191505b5098505050505050505050604051809103906000f08015801562001854573d6000803e3d6000fd5b50600080546001810182558180527f290decd9548b62a8d60345a988386fc84ba6bc95484008f6362f93160ef3e5630180546001600160a01b0319166001600160a01b038416179055604080516020808201879052828252885192820192909252875193945033937ff645d5231257014315ed789c411b77c7e67b0405fd43321cea8589246e5f11c393899388939283926060840192870191908190849084905b838110156200190f578181015183820152602001620018f5565b50505050905090810190601f1680156200193d5780820380516001836020036101000a031916815260200191505b50935050505060405180910390a250505050565b61157280620019608339019056fe608060405260006004556005805461ffff191690553480156200002157600080fd5b506040516200157238038062001572833981016040819052620000449162000201565b600080546001600160a01b0319166001600160a01b038816179055845162000074906001906020880190620000d3565b5083516200008a906002906020870190620000d3565b506003929092556005805462010000600160b01b031916620100006001600160a01b0393841602179055600680546001600160a01b03191691909216179055506200039d915050565b828054600181600116156101000203166002900490600052602060002090601f016020900481019282601f106200011657805160ff191683800117855562000146565b8280016001018555821562000146579182015b828111156200014657825182559160200191906001019062000129565b506200015492915062000158565b5090565b6200017591905b808211156200015457600081556001016200015f565b90565b805162000185816200036d565b92915050565b8051620001858162000387565b600082601f830112620001aa57600080fd5b8151620001c1620001bb82620002ec565b620002c5565b91508082526020830160208301858383011115620001de57600080fd5b620001eb8382846200033a565b50505092915050565b8051620001858162000392565b60008060008060008060c087890312156200021b57600080fd5b600062000229898962000178565b96505060208701516001600160401b038111156200024657600080fd5b6200025489828a0162000198565b95505060408701516001600160401b038111156200027157600080fd5b6200027f89828a0162000198565b94505060606200029289828a01620001f4565b9350506080620002a589828a016200018b565b92505060a0620002b889828a016200018b565b9150509295509295509295565b6040518181016001600160401b0381118282101715620002e457600080fd5b604052919050565b60006001600160401b038211156200030357600080fd5b506020601f91909101601f19160190565b600062000185826200032e565b6000620001858262000314565b6001600160a01b031690565b60005b83811015620003575781810151838201526020016200033d565b8381111562000367576000848401525b50505050565b620003788162000314565b81146200038457600080fd5b50565b620003788162000321565b620003788162000175565b6111c580620003ad6000396000f3fe608060405234801561001057600080fd5b50600436106101735760003560e01c80637284e416116100de578063ab38e45a11610097578063d3ecc36511610071578063d3ecc365146102d5578063e2fdcc17146102dd578063f06bb88c146102e5578063f670786f146102ed57610173565b8063ab38e45a146102a7578063c547092b146102af578063cc6cb19a146102c257610173565b80637284e416146102545780637aa21e9c1461025c5780637fb05c9e1461026f578063893d20e8146102775780638da5cb5b1461028c578063a81e5d1a1461029457610173565b8063344612c711610130578063344612c7146101f25780633ceb4bd0146101fa5780634151b3291461020d578063528ccbf4146102225780635b27ae2e1461022a578063629e4ed01461023f57610173565b8063062c82361461017857806306fdde03146101a357806317d7de7c146101b85780631a092541146101c05780631bd29b6c146101c857806323d12bcc146101dd575b600080fd5b61018b610186366004610d16565b610300565b60405161019a93929190610ff4565b60405180910390f35b6101ab6103b0565b60405161019a9190610f9e565b6101ab61043d565b6101ab6104d3565b6101d0610531565b60405161019a9190610fe6565b6101f06101eb366004610cc3565b610537565b005b6101d06106d1565b6101f0610208366004610c89565b6106d7565b610215610701565b60405161019a9190610f90565b6101d0610716565b610232610729565b60405161019a9190610f82565b610247610795565b60405161019a919061102a565b6101ab61079e565b6101ab61026a366004610d16565b6107f6565b6101d06108a2565b61027f610909565b60405161019a9190610f74565b61027f610918565b6102326102a2366004610d16565b610927565b6101d0610982565b6101f06102bd366004610cf8565b610988565b6101d06102d0366004610c63565b610ac9565b610247610adb565b610215610ae4565b6101d0610af3565b6101d06102fb366004610d16565b610af9565b60076020908152600091825260409182902080546001808301546002808501805488516101009582161595909502600019011691909104601f8101879004870284018701909752868352929560ff909116949192918301828280156103a65780601f1061037b576101008083540402835291602001916103a6565b820191906000526020600020905b81548152906001019060200180831161038957829003601f168201915b5050505050905083565b60018054604080516020600284861615610100026000190190941693909304601f810184900484028201840190925281815292918301828280156104355780601f1061040a57610100808354040283529160200191610435565b820191906000526020600020905b81548152906001019060200180831161041857829003601f168201915b505050505081565b60018054604080516020601f600260001961010087891615020190951694909404938401819004810282018101909252828152606093909290918301828280156104c85780601f1061049d576101008083540402835291602001916104c8565b820191906000526020600020905b8154815290600101906020018083116104ab57829003601f168201915b505050505090505b90565b60028054604080516020601f60001961010060018716150201909416859004938401819004810282018101909252828152606093909290918301828280156104c85780601f1061049d576101008083540402835291602001916104c8565b60045481565b6000546001600160a01b0316331461056a5760405162461bcd60e51b815260040161056190610fb6565b60405180910390fd5b600554610100900460ff16600090815260076020526040902054600454146105a45760405162461bcd60e51b815260040161056190610fc6565b6005805460ff61010091829004811660009081526007602090815260408083206001908101805460ff1916909117905594549390930490911681529190912082516105f792600290920191840190610b50565b506005805460ff61010080830482166001019091160261ff00199091161790556006546040805163027dff4760e61b815290516001600160a01b0390921691639f7fd1c09160048082019260009290919082900301818387803b15801561065d57600080fd5b505af1158015610671573d6000803e3d6000fd5b505060055460001960ff6101009092048216019081166000908152600760205260409081902090517f24b5457e06de7784b7113505dffa8d9780c3fc4b72363f9e4485adf0503f44d294506106c69350611038565b60405180910390a150565b60035481565b6001600160a01b039091166000908152600860205260409020805482019055600480549091019055565b6005546201000090046001600160a01b031681565b3360009081526008602052604090205490565b60055460009060ff808216610100909204161180610745575060005b15610752575060006104d0565b600554610100810460ff9081169116141561076f575060006104d0565b5060055460ff6101009091048116600090815260076020526040902060010154166104d0565b60055460ff1690565b6002805460408051602060018416156101000260001901909316849004601f810184900484028201840190925281815292918301828280156104355780601f1061040a57610100808354040283529160200191610435565b60ff81166000908152600760209081526040918290206002908101805484516001821615610100026000190190911692909204601f810184900484028301840190945283825260609391929091908301828280156108955780601f1061086a57610100808354040283529160200191610895565b820191906000526020600020905b81548152906001019060200180831161087857829003601f168201915b505050505090505b919050565b60055460009060ff8082166101009092041611806108be575060005b156108cb575060006104d0565b600554610100810460ff908116911614156108e957506003546104d0565b50600554610100900460ff166000908152600760205260409020546104d0565b6000546001600160a01b031690565b6000546001600160a01b031681565b60055460009060ff908116908316118061093f575060005b1561094c5750600061089d565b60055460ff838116911614156109645750600061089d565b5060ff8082166000908152600760205260409020600101541661089d565b60035490565b6000546001600160a01b031633146109b25760405162461bcd60e51b815260040161056190610fb6565b60035481106109d35760405162461bcd60e51b815260040161056190610fd6565b604080516060810182528281526000602080830182815284518086018652600b81526a139bdd081c995858da195960aa1b8184015284860190815260055460ff168452600783529490922083518155915160018301805460ff19169115159190911790559251805192939192610a4f9260028501920190610b50565b50506005805460ff8082166001011660ff19909116179055506006546040805163027dff4760e61b815290516001600160a01b0390921691639f7fd1c09160048082019260009290919082900301818387803b158015610aae57600080fd5b505af1158015610ac2573d6000803e3d6000fd5b5050505050565b60086020526000908152604090205481565b60055460ff1681565b6006546001600160a01b031681565b60045490565b60055460009060ff9081169083161180610b11575060005b15610b1e5750600061089d565b60055460ff83811691161415610b37575060035461089d565b5060ff811660009081526007602052604090205461089d565b828054600181600116156101000203166002900490600052602060002090601f016020900481019282601f10610b9157805160ff1916838001178555610bbe565b82800160010185558215610bbe579182015b82811115610bbe578251825591602001919060010190610ba3565b50610bca929150610bce565b5090565b6104d091905b80821115610bca5760008155600101610bd4565b8035610bf381611159565b92915050565b600082601f830112610c0a57600080fd5b8135610c1d610c188261107f565b611058565b91508082526020830160208301858383011115610c3957600080fd5b610c448382846110ed565b50505092915050565b8035610bf381611170565b8035610bf381611179565b600060208284031215610c7557600080fd5b6000610c818484610be8565b949350505050565b60008060408385031215610c9c57600080fd5b6000610ca88585610be8565b9250506020610cb985828601610c4d565b9150509250929050565b600060208284031215610cd557600080fd5b813567ffffffffffffffff811115610cec57600080fd5b610c8184828501610bf9565b600060208284031215610d0a57600080fd5b6000610c818484610c4d565b600060208284031215610d2857600080fd5b6000610c818484610c58565b610d3d816110c6565b82525050565b610d3d816110d1565b610d3d816110e2565b6000610d60826110b3565b610d6a81856110b7565b9350610d7a8185602086016110f9565b610d838161114f565b9093019392505050565b600081546001811660008114610daa5760018114610dd057610e0f565b607f6002830416610dbb81876110b7565b60ff1984168152955050602085019250610e0f565b60028204610dde81876110b7565b9550610de9856110a7565b60005b82811015610e0857815488820152600190910190602001610dec565b8701945050505b505092915050565b6000610e24602e836110b7565b7f4f6e6c79207468652063616d706169676e206f776e65722063616e2063616c6c81526d103a3434b990333ab731ba34b7b760911b602082015260400192915050565b6000610e746027836110b7565b7f43757272656e74204d696c6573746f6e6520686173206e6f74206265656e207281526632b0b1b432b21760c91b602082015260400192915050565b6000610ebd6035836110b7565b7f43616e206e6f7420736574206d696c6573746f6e652061626f7665206f7220658152741c5d585b081d1bc8185b5bdd5b9d081b9959591959605a1b602082015260400192915050565b80546000906060840190610f1a8161113c565b610f248682610f62565b50506001830154610f3481611129565b610f416020870182610d43565b50600284018583036040870152610f588382610d8d565b9695505050505050565b610d3d816104d0565b610d3d816110c0565b60208101610bf38284610d34565b60208101610bf38284610d43565b60208101610bf38284610d4c565b60208082528101610faf8184610d55565b9392505050565b60208082528101610bf381610e17565b60208082528101610bf381610e67565b60208082528101610bf381610eb0565b60208101610bf38284610f62565b606081016110028286610f62565b61100f6020830185610d43565b81810360408301526110218184610d55565b95945050505050565b60208101610bf38284610f6b565b604081016110468285610f6b565b8181036020830152610c818184610f07565b60405181810167ffffffffffffffff8111828210171561107757600080fd5b604052919050565b600067ffffffffffffffff82111561109657600080fd5b506020601f91909101601f19160190565b60009081526020902090565b5190565b90815260200190565b60ff1690565b6000610bf3826110d6565b151590565b6001600160a01b031690565b6000610bf3826110c6565b82818337506000910152565b60005b838110156111145781810151838201526020016110fc565b83811115611123576000848401525b50505050565b6000610bf3611137836104d0565b6110c0565b6000610bf361114a836104d0565b6104d0565b601f01601f191690565b611162816110c6565b811461116d57600080fd5b50565b611162816104d0565b611162816110c056fea365627a7a72315820675fd96fc1e012563264bcdf79bc1d0c4971ce99d976b75abebdcb44a535d2206c6578706572696d656e74616cf564736f6c6343000511004043757272656e74204d696c6573746f6e6520686173206265656e2066756c66696c6c656420627574206e6f7420617070726f7665642e20506c6561736520646f6e617465206f6e6365206f7267616e697a6174696f6e2068617320636f6d706c6574656420746865206d696c6573746f6e652e43616e206e6f7420646f6e61746520746f20796f7572206f776e2063616d706169676e264f630d9efa0d07053a31163641d9fcc0adafc9d9e76f1c37c2ce3a558d2c52a265627a7a72315820420e3dd1b742d9a934f8f7087c3fcc92ecaf99e32134bac42b7321b4386f3d4864736f6c63430005110032",
  "source": "pragma solidity >=0.4.22 <0.9.0;\r\n\r\nimport \"./Campaign.sol\";\r\nimport \"./GiveCoin.sol\";\r\n\r\ncontract Escrow {\r\n    Campaign[] public campaigns;\r\n    GiveCoin public givecoin;\r\n    address public owner;\r\n\r\n    event CampaignCreated(\r\n        address indexed creator,\r\n        string name,\r\n        uint256 amountNeeded\r\n    );\r\n\r\n    event DonationReceived(address donor, uint256 amount);\r\n    event OverflowReturned(address donor, uint256 amount);\r\n    event AwaitingApproval(Campaign campaign, uint8 milestone);\r\n\r\n    constructor(GiveCoin _givecoin) public {\r\n        givecoin = _givecoin;\r\n        owner = msg.sender;\r\n    }\r\n\r\n    address[] public donators;\r\n\r\n    // Donation info as mapping: donor => (campaign => donation amount)\r\n    mapping(address => mapping(address => uint256)) public donationInfo;\r\n    mapping(address => mapping(address => bool)) private donatedChecker;\r\n    mapping(address => bool) public hasDonated;\r\n    mapping(address => bool) public isDonating;\r\n\r\n    function createCampaign(\r\n        string memory name,\r\n        string memory description,\r\n        uint256 amountNeeded\r\n    ) public {\r\n        Campaign newCampaign = new Campaign(\r\n            msg.sender,\r\n            name,\r\n            description,\r\n            amountNeeded,\r\n            givecoin,\r\n            this\r\n        );\r\n        campaigns.push(newCampaign);\r\n\r\n        emit CampaignCreated(msg.sender, name, amountNeeded);\r\n    }\r\n\r\n    function getCampaigns() public view returns (Campaign[] memory) {\r\n        return campaigns;\r\n    }\r\n\r\n    function getDonationInfo(\r\n        address account,\r\n        address campaign\r\n    ) public view returns (uint256) {\r\n        return donationInfo[account][campaign];\r\n    }\r\n\r\n    function getAllDonationsForAccount(\r\n        address account\r\n    ) public view returns (uint256[] memory, address[] memory) {\r\n        uint256 length = campaigns.length;\r\n        uint256[] memory donations = new uint256[](length);\r\n        address[] memory campaignAddresses = new address[](length);\r\n\r\n        for (uint256 i = 0; i < length; i++) {\r\n            Campaign campaign = campaigns[i];\r\n            address campaignAddr = address(campaign);\r\n            if (donatedChecker[account][campaignAddr]) {\r\n                donations[i] = donationInfo[account][campaignAddr];\r\n                campaignAddresses[i] = campaignAddr;\r\n            }\r\n        }\r\n        return (donations, campaignAddresses);\r\n    }\r\n\r\n    function donateCoin(uint256 amount, Campaign campaign) public {\r\n        require(amount > 0, \"Amount cannot be 0\");\r\n\r\n        require(\r\n            address(campaign) != address(0),\r\n            \"Campaign can not be a null value\"\r\n        );\r\n\r\n        require(\r\n            campaign.owner() != msg.sender,\r\n            \"Can not donate to your own campaign\"\r\n        );\r\n\r\n        // Update the donation amount for this campaign\r\n        donationInfo[msg.sender][address(campaign)] += amount;\r\n        donatedChecker[msg.sender][address(campaign)] = true;\r\n\r\n        // Transfer GiveCoin tokens from the donor to the contract\r\n        givecoin.transferFrom(msg.sender, address(this), amount);\r\n\r\n        // Track donors\r\n        if (!hasDonated[msg.sender]) {\r\n            donators.push(msg.sender);\r\n            hasDonated[msg.sender] = true;\r\n        }\r\n        isDonating[msg.sender] = true;\r\n\r\n        issueCoin();\r\n    }\r\n\r\n    function issueCoin() public {\r\n        // require(msg.sender == owner, \"caller must be the owner\");\r\n\r\n        for (uint i = 0; i < donators.length; i++) {\r\n            address donator = donators[i];\r\n            isDonating[donator] = false;\r\n\r\n            // Iterate through each campaign for this donator\r\n            for (uint j = 0; j < campaigns.length; j++) {\r\n                Campaign campaign = campaigns[j];\r\n                address campaignAddr = address(campaign);\r\n\r\n                uint256 donation = donationInfo[donator][campaignAddr];\r\n\r\n                if (donation > 0) {\r\n                    address recipient = campaign.owner();\r\n\r\n                    // Check if donation needs to be handled for overflow, completion, etc.\r\n                    if (\r\n                        campaign.totalAmountNeeded() ==\r\n                        campaign.totalAmountReceived()\r\n                    ) {\r\n                        donationInfo[donator][campaignAddr] = 0;\r\n                        givecoin.transfer(donator, donation);\r\n                    } else if (\r\n                        (campaign.totalAmountReceived() + donation) >\r\n                        campaign.totalAmountNeeded()\r\n                    ) {\r\n                        uint256 overflow = campaign.totalAmountReceived() +\r\n                            donation -\r\n                            campaign.totalAmountNeeded();\r\n                        donationInfo[donator][campaignAddr] = 0;\r\n                        campaign.donated(donator, donation - overflow);\r\n                        givecoin.transfer(recipient, donation - overflow);\r\n                        givecoin.transfer(donator, overflow);\r\n\r\n                        emit DonationReceived(donator, donation - overflow);\r\n                        emit OverflowReturned(donator, overflow);\r\n                    } else {\r\n                        if (campaign.Milestones() == 0) {\r\n                            donationInfo[donator][campaignAddr] = 0;\r\n                            campaign.donated(donator, donation);\r\n                            givecoin.transfer(recipient, donation);\r\n\r\n                            emit DonationReceived(donator, donation);\r\n                        } else {\r\n                            require(\r\n                                !campaign.getCurrentMilestoneApproved(),\r\n                                \"Current Milestone has been fulfilled but not approved. Please donate once organization has completed the milestone.\"\r\n                            );\r\n\r\n                            uint256 remainingForMilestone = campaign\r\n                                .getCurrentMilestoneAmount() -\r\n                                campaign.totalAmountReceived();\r\n                            if (donation > remainingForMilestone) {\r\n                                uint256 overflow = donation -\r\n                                    remainingForMilestone;\r\n                                donationInfo[donator][campaignAddr] = overflow;\r\n                                campaign.donated(donator, donation - overflow);\r\n                                givecoin.transfer(\r\n                                    recipient,\r\n                                    donation - overflow\r\n                                );\r\n\r\n                                emit DonationReceived(\r\n                                    donator,\r\n                                    donation - overflow\r\n                                );\r\n                                emit AwaitingApproval(\r\n                                    campaign,\r\n                                    campaign.Milestones()\r\n                                );\r\n                            } else {\r\n                                donationInfo[donator][campaignAddr] = 0;\r\n                                campaign.donated(donator, donation);\r\n                                givecoin.transfer(recipient, donation);\r\n\r\n                                emit DonationReceived(donator, donation);\r\n                            }\r\n                        }\r\n                    }\r\n                }\r\n            }\r\n        }\r\n    }\r\n}\r\n",
  "sourcePath": "C:\\Users\\rishi\\OneDrive\\Desktop\\term7\\blockchain\\givecoin-dapp\\src\\contracts\\Escrow.sol",
  "compiler": {
    "name": "solc",
    "version": "0.5.17+commit.d19bba13.Emscripten.clang"
  },
  "schemaVersion": "3.4.16",
  "updatedAt": "2024-12-09T14:09:51.148Z",
  "networkType": "ethereum",
  "devdoc": {
    "methods": {}
  },
  "userdoc": {
    "methods": {}
  }
}